:020000040800F2
:10000000000002204D260008650D0008670D00085D
:10001000690D00086B0D00086D0D00080000000060
:100020000000000000000000000000006F0D00084C
:10003000710D000800000000730D0008750D000828
:100040009D2600089D2600089D2600089D26000884
:100050009D2600089D260008490600089D260008E8
:100060009D2600089D2600089D2600089D26000864
:100070009D2600089D2600089D2600089D26000854
:100080007D0D00089D2600089D2600089D2600087D
:100090009D2600089D2600089D2600089D26000834
:1000A0009D2600089D2600089D2600089D26000824
:1000B0009D2600089D2600089D2600089D26000814
:1000C0009D2600089D2600089D2600089D26000804
:1000D0009D2600089D2600089D2600089D260008F4
:1000E0009D2600089D2600089D2600089D260008E4
:1000F0009D2600089D2600089D2600089D260008D4
:100100009D2600089D2600089D2600089D260008C3
:100110009D2600089D2600089D2600089D260008B3
:100120009D2600089D2600089D2600089D260008A3
:100130009D26000800000000000000009D26000829
:100140009D2600089D2600089D2600089D26000883
:100150009D2600089D2600089D2600089D26000873
:100160009D2600089D2600089D2600089D26000863
:100170009D2600089D2600089D260008000000001E
:10018000000000009D2600080000000000000000A4
:100190009D26000800000000000000009D260008C9
:1001A0000000000000000000000000009D26000884
:1001B0009D2600089D2600089D2600089D26000813
:0401C0009D26000870
:1001C40010B5054C237833B9044B13B10448AFF38D
:1001D40000800123237010BD1400002000000000E3
:1001E400F826000808B5034B1BB103490348AFF3D5
:1001F400008008BD0000000018000020F826000858
:1002040053B94AB9002908BF00281CBF4FF0FF3179
:100214004FF0FF3000F088B9ADF1080C6DE904CE61
:1002240000F006F8DDF804E0DDE9022304B07047CD
:100234002DE9F047089D8E4604468846002B4AD196
:100244008A42174662D9B2FA82F64EB1C6F1200349
:1002540001FA06F820FA03F3B74043EA0808B44069
:100264004FEA174E1FFA87FCB8FBFEF1230C0EFB76
:10027400118843EA084301FB0CF29A4209D9FB189E
:1002840001F1FF3080F0EA809A4240F2E7800239BF
:100294003B449A1AA3B2B2FBFEF00EFB102243EACF
:1002A400024300FB0CFC9C4509D9FB1800F1FF320A
:1002B40080F0D6809C4540F2D3803B44023840EA2B
:1002C4000140A3EB0C0300211DB1F3400022C5E95A
:1002D4000032BDE8F0878B4205D90DB1C5E90001B4
:1002E40000210846F5E7B3FA83F1002946D17345A6
:1002F40002D3824200F20581841A6EEB03020120CC
:100304009046002DE5D0C5E90048E2E7002A00F058
:100314009080B2FA82F6002E40F0A4808A1A030C70
:100324004FEA174E80B2BCB20121B2FBFEFC0EFBB9
:100334001C2243EA024304FB0CF29A4207D9FB183D
:100344000CF1FF3802D29A4200F2E080C4469B1AB4
:10035400B3FBFEF20EFB123340EA034302FB04F448
:100364009C4207D9FB1802F1FF3002D29C4200F2F2
:10037400CA8002461B1B42EA0C40A5E7C1F12006D5
:100384008B4022FA06F71F430EFA01F420FA06F313
:100394002EFA06FE4FEA1749234300FA01F81FFA22
:1003A40087FCBEFBF9F01C0C09FB10EE44EA0E447A
:1003B40000FB0CFEA64502FA01F209D93C1900F132
:1003C400FF3A80F09C80A64540F2998002383C4474
:1003D400A4EB0E041FFA83FEB4FBF9F309FB1344E8
:1003E4004EEA044403FB0CFCA44508D93C1903F170
:1003F400FF3E80F08280A4457FD9023B3C4443EA1F
:100404000040A4EB0C04A0FB02EC64457346E146F7
:1004140062D35FD05DB1B8EB030264EB090404FA64
:1004240006F622FA01F31E43CC40C5E9006400211C
:100434004FE7B1FBF2FC010C41EA0E4180B240EA05
:1004440001423B4638463C46B846BE462026B1FBF0
:10045400F7F1A2EB080241EA0C4166E7014618E70E
:1004640010462CE7C6F120022EFA02F3B740B14041
:1004740020FA02F24FEA174E0A43B3FBFEF8BCB26D
:100484000EFB1833110C41EA034108FB04F9B04098
:1004940089454FEA104380B23ED9791808F1FF3CF0
:1004A40001D289451FD8A1EB0901B1FBFEF909FB73
:1004B40004F80EFB191192B242EA0142424529D2D4
:1004C400BA1809F1FF31C4D24245C2D2A9F10201DE
:1004D4003A44BEE7F0459DD2BEEB02036CEB070C39
:1004E4000138E14696E7A7EB09094944A8F1020C53
:1004F400B1FBFEF909FB04F8DBE773467FE75046DE
:1005040066E70846FDE63B44023A33E7ACF1020CE9
:100514003B441CE749469CE7A1EB0901C446B1FBF7
:10052400FEF909FB04F8C4E7704700BF2DE9F04F5A
:1005340089B00024039404940594069407940094C9
:100544002F4B1A6B42F080021A631A6B02F080027E
:100554000092009A01941A6B42F001021A631A6B1A
:1005640002F001020192019A02941A6B42F0020213
:100574001A631B6B03F002030293029B4FF4404B7C
:10058400CDF80CB001260496DFF87CA003A95046F0
:1005940001F064FC4FF44079CDF80C90DFF86C80E6
:1005A40003A9404601F05AFC4FF410470397154D38
:1005B40003A9284601F052FC22465946504601F050
:1005C4003DFD22464946404601F038FD2246394663
:1005D400284601F033FD03964FF4881304930596DF
:1005E40003A9284601F03AFC22460221062001F024
:1005F400A7FF062001F0B4FF09B0BDE8F08F00BFEB
:10060400003802400000024000080240000402409A
:1006140000B583B000210191094B1A6B42F400121A
:100624001A631B6B03F400130193019B0A46102009
:1006340001F086FF102001F093FF03B05DF804FB86
:100644000038024008B501F0EFFF3C4B1B68C01AAC
:10065400B0F5FA7F03D8012001F0F8FC08BD01F0E1
:10066400E3FF364B1860364B1A68D36823F40073E3
:10067400D360344801F00FFE33490A680132334B2A
:10068400A3FB02039B0803EB4303A2EB43030B60AE
:10069400052B0FD8DFE803F00315212D39454FF45E
:1006A40080632B4A12682B49264801F0BFFD2A4873
:1006B40000F048FB224B1A68D36843F40073D360FC
:1006C400C9E74FF48063224A126824491D4801F0A7
:1006D400ADFD234800F036FBECE74FF480631C4A81
:1006E40012682049174801F0A1FD1F4800F02AFBB9
:1006F400E0E74FF48063164A12681C49114801F080
:1007040095FD1B4800F01EFBD4E74FF48063104AAC
:10071400126818490B4801F089FD174800F012FBD4
:10072400C8E74FF480630A4A12681449054801F087
:100734007DFD134800F006FBBCE700BF3400002039
:10074400E00000203800002030000020ABAAAAAA54
:10075400000000205C770008102700085C67000890
:10076400182700085C570008242700085C47000885
:10077400302700085C370008382700085C27000889
:100784004027000872B6FEE700B58FB000230A9335
:100794000B930C930D930893099301930293039382
:1007A400049305930693079335484FF08042026003
:1007B40043608360334A1268C2600361836100F05E
:1007C400A9FC002850D14FF480530A930AA92C485D
:1007D40000F006FE002849D1294800F0C7FC002893
:1007E40046D100230893099308A9254800F08AFFFD
:1007F40000283FD10022019202920392059201A99E
:100804001F4800F043FD002836D1002300931E4A00
:10081400116B41F400111163126B02F40012009287
:10082400009A1A481A4A02604FF0C062426040229D
:100834008260C3604FF4806202614FF4805242616F
:100844004FF4804282614FF48072C2614FF40032EF
:100854000262436201F084FC80B9094A0B4B536283
:100864009A630FB05DF804FBFFF78CFFFFF78AFF74
:10087400FFF788FFFFF786FFFFF784FFFFF782FF8C
:10088400E00000200400002000380240380000206E
:100894008860024000B58FB000230A930B930C9339
:1008A4000D9308930993019302930393049305937F
:1008B400069307931E481F4A02604360836040F614
:1008C400FF72C2600361836100F024FC28BB4FF413
:1008D40080530A930AA9164800F082FDF8B9144817
:1008E40000F070FCE8B900230893099308A91048A4
:1008F40000F008FFB8B96023019300230293039327
:100904000593082201A90A4800F0EFFC68B90848D9
:1009140000F0A2FA0FB05DF804FBFFF733FFFFF716
:1009240031FFFFF72FFFFFF72DFFFFF72BFF00BF6E
:10093400980000200004004000B595B03422002146
:1009440007A801F0AAFE00230293039304930593DE
:1009540006930093194A116C41F080511164126C92
:1009640002F080520092009A019315490A6822F419
:10097400404242F480420A600A6802F44042019212
:10098400019A0222079201220A9210220B920D93DD
:1009940007A801F041F868B90F23029300210391DD
:1009A40004910591069102A800F0F2FE20B915B059
:1009B4005DF804FBFFF7E6FEFFF7E4FE00380240B3
:1009C4000070004008B501F009FEFFF7B5FFFFF71E
:1009D400ADFDFFF71DFEFFF7D7FEFFF75BFF082114
:1009E400104800F00DFE104B4FF40042DA630F4C38
:1009F4000021204600F082FD4FF480630C4A126807
:100A04000C490D4801F012FC00F05CF9012000F0E3
:100A1400D1F80A4800F096F92268D36843F40073C9
:100A2400D360FEE79800002000040040E0000020AE
:100A3400000000205C770008380000201027000820
:100A440082B000EB40000023019304E000BF00BF2C
:100A5400019B01330193019B8342F7D302B070479A
:100A640010B51420FFF7ECFF094CA36943F40043CD
:100A7400A3611420FFF7E4FFA36943F00043A361DB
:100A84001420FFF7DDFFA36943F40043A36110BD05
:100A94000008024010B504463D4A936943F480437C
:100AA400936110F0800F41D13A4A936943F00043B7
:100AB400936114F0400F40D0364A936943F4805355
:100AC400936114F0200F3ED0334A936943F40073CA
:100AD400936114F0100F3CD02F4A936943F4807350
:100AE4009361FFF7BDFF14F0080F38D0294A9369CA
:100AF40043F40043936114F0040F36D0254A9369FC
:100B040043F48053936114F0020F34D0224A936962
:100B140043F40073936114F0010F32D01E4A9369B9
:100B240043F480739361FFF79BFF10BDA2F500624D
:100B3400936943F400439361BBE7164A936943F016
:100B440080539361BDE7144A936943F00073936142
:100B5400BFE7114A936943F080739361C1E70D4A7B
:100B6400936943F000439361C5E70A4A936943F0EC
:100B740080539361C7E7084A936943F00073936114
:100B8400C9E7054A936943F080739361CBE700BFDB
:100B940000080240000002400004024038B5054647
:100BA400002403E0FFF776FF0134E4B2285D002857
:100BB400F8D138BD10B504463F4A936943F08043E9
:100BC400936110F0800F45D13C4A936943F0004390
:100BD400936114F0400F44D0384A936943F480532E
:100BE400936114F0200F42D0354A936943F40073A3
:100BF400936114F0100F40D0314A936943F4807329
:100C04009361FFF72DFF14F0080F3CD02B4A936932
:100C140043F40043936114F0040F3AD0274A9369D4
:100C240043F48053936114F0020F38D0244A93693B
:100C340043F40073936114F0010F36D0204A936992
:100C440043F480739361FFF70BFF40F6B830FFF76E
:100C5400F7FE10BDA2F50062936943F4004393616B
:100C6400B7E7164A936943F080539361B9E7144A8E
:100C7400936943F000739361BBE7114A936943F0AE
:100C840080739361BDE70D4A936943F00043936118
:100C9400C1E70A4A936943F080539361C3E7084A62
:100CA400936943F000739361C5E7054A936943F080
:100CB40080739361C7E700BF000802400000024050
:100CC4000004024008B5194B1A6B42F001021A6382
:100CD4001A6B42F002021A631A6B42F004021A639E
:100CE400134A136843F08243136002F58062136869
:100CF40043F4A023136002F58062136843F0A04319
:100D0400136047F23050FFF79BFE3320FFF752FF8A
:100D14003220FFF74FFF0C20FFF74CFF2820FFF78E
:100D240049FF0120FFF746FF08BD00BF003802401D
:100D34000000024008B50248FFF730FF08BD00BFBD
:100D44004827000810B504468020FFF733FFFFF75B
:100D5400F1FF8020FFF72EFF2046FFF71FFF10BD95
:100D6400FEE7FEE7FEE7FEE7FEE7704770477047E1
:100D740008B501F04DFC08BD08B5024801F09EFA23
:100D840008BD00BF3800002082B0002100910B4B49
:100D94005A6C42F480425A645A6C02F480420092C3
:100DA400009A01911A6C42F080521A641B6C03F091
:100DB40080530193019B02B0704700BF003802408A
:100DC40010B582B00368B3F1804F04D01E4A934239
:100DD4002CD002B010BD0446002300931B4A116CB2
:100DE40041F001011164126C02F001020092009AB8
:100DF4001748184A02604FF0C06242608360C360C3
:100E04004FF4806202614FF4805242614FF4804299
:100E14008261C3610362436201F0A2F918B90C4B09
:100E240063629C63D5E7FFF7ADFCF8E70023019309
:100E3400064B1A6C42F002021A641B6C03F00203A4
:100E44000193019BC5E700BF000400400038024045
:100E5400380000208860024000B587B00023019369
:100E6400029303930493059302680E4B9A4202D0B3
:100E740007B05DF804FB002300930B4B1A6B42F0A0
:100E840002021A631B6B03F002030093009B01230D
:100E9400019302230293059301A9044800F0DEFFA5
:100EA400E6E700BF000400400038024000040240AE
:100EB40030B4036A026A22F0010202624268846961
:100EC40024F0730C0C6844EA0C0423F0020C8B68C5
:100ED40043EA0C03114DA84203D005F58065A842EE
:100EE40005D123F00803CD682B4323F004030B4DF5
:100EF400A84203D005F58065A84207D122F44072C8
:100F04004D6945EA020C8A6942EA0C024260846136
:100F14004A684263036230BC704700BF000001406E
:100F240030B4036A026A22F4807202624268C469BD
:100F340024F0730C0C6844EA0C0523F400738C68E9
:100F440043EA0423114CA04203D004F58064A04278
:100F540006D123F40063CC6843EA042323F48063BA
:100F64000A4CA04203D004F58064A04207D122F4C5
:100F740040524C6942EA04128C6942EA041242600B
:100F8400C5614A68C263036230BC70470000014017
:100F940030B4036A026A22F4805202624468C2696D
:100FA40022F4E6420D6842EA052223F400538D68D8
:100FB40043EA0533094DA84203D005F58065A842EC
:100FC40004D124F480444D6944EA85144460C26128
:100FD4004A680264036230BC704700BF00000140ED
:100FE40010B4036A046A24F001040462846924F0DE
:100FF400F00C4CEA021223F00A030B4382610362F1
:101004005DF8044B704710B4036A046A24F01004BA
:101014000462846924F4704C4CEA023223F0A00385
:1010240043EA0113826103625DF8044B70478368ED
:1010340023F070030B4343F007038360704770474A
:10104400704700000368324A904212D0B0F1804FDA
:101054000FD0A2F57C4290420BD002F58062904200
:1010640007D002F58062904203D002F578429042A4
:1010740003D123F070034A681343254A90422AD0CF
:10108400B0F1804F27D0A2F57C42904223D002F5E4
:10109400806290421FD002F5806290421BD002F51C
:1010A4007842904217D002F57052904213D002F564
:1010B400806290420FD002F5806290420BD0A2F57C
:1010C4009832904207D002F58062904203D002F534
:1010D4008062904203D123F44073CA68134323F01F
:1010E40080034A6913438A68C2620A688262084AB2
:1010F400904203D002F58062904201D10A690263F2
:10110400026842F0040202600122426103607047F7
:101114000000014040B310B5044690F83D30F3B1EF
:10112400022384F83D30214651F8040BFFF78AFF6F
:10113400012384F8463084F83E3084F83F3084F844
:10114400403084F8413084F8423084F8433084F8E5
:10115400443084F8453084F83D30002010BD80F8D8
:101164003C30FFF72DFEDBE70120704740B310B59C
:10117400044690F83D30F3B1022384F83D30214613
:1011840051F8040BFFF75EFF012384F8463084F81E
:101194003E3084F83F3084F8403084F8413084F89D
:1011A400423084F8433084F8443084F8453084F87D
:1011B4003D30002010BD80F83C30FFF740FFDBE7F6
:1011C4000120704740B310B5044690F83D30F3B1A8
:1011D400022384F83D30214651F8040BFFF732FF17
:1011E400012384F8463084F83E3084F83F3084F894
:1011F400403084F8413084F8423084F8433084F835
:10120400443084F8453084F83D30002010BD80F827
:101214003C30FFF715FFDBE70120704730B4036A69
:10122400026A22F0100202624468826922F4E642F1
:101234000D6842EA052223F020038D6843EA051372
:10124400114DA84203D005F58065A84206D123F0CC
:101254008003CD6843EA051323F040030A4DA842F6
:1012640003D005F58065A84207D124F440644D6994
:1012740044EA85048D6944EA8504446082614A68CD
:101284008263036230BC70470000014090F83C3038
:10129400012B28D010B50446012380F83C300C2AD9
:1012A4001CD8DFE802F0071B1B1B0C1B1B1B111BAC
:1012B4001B1B16000068FFF7FBFD00200FE0006811
:1012C400FFF7ACFF00200AE00068FFF729FE0020CA
:1012D40005E00068FFF75CFE002000E00120002329
:1012E40084F83C3010BD0220704738B590F83C308B
:1012F400012B66D004460D46012380F83C300C2AAD
:101304005AD8DFE802F0075959591B59595930592D
:10131400595944000068FFF7CBFD2268936943F0F4
:10132400080393612268936923F00403936122689C
:10133400936929690B43936100203EE00068FFF73D
:101344006DFF2268936943F4006393612268936993
:1013540023F48063936122689369296943EA012332
:101364009361002029E00068FFF7DAFD2268D36961
:1013740043F00803D3612268D36923F00403D361E3
:101384002268D36929690B43D361002015E0006802
:10139400FFF7FEFD2268D36943F40063D36122683A
:1013A400D36923F48063D3612268D369296943EA4A
:1013B4000123D361002000E00120002384F83C30A5
:1013C40038BD0220FCE710B4846824F47F4C42EA60
:1013D40003220A4342EA0C0282605DF8044B704720
:1013E40090F83C30012B78D010B50446012380F8E6
:1013F4003C30022380F83D300268936823F47F4335
:1014040023F0770393600B68602B4CD023D8402BD8
:1014140054D011D8202B03D00AD80BB1102B05D1EE
:1014240019462068FFF703FE002028E0012026E08B
:10143400302BF5D0012022E0502B0AD1CA6849682C
:101444000068FFF7CDFD50212068FFF7F0FD002074
:1014540015E0012013E0B3F5805F3AD0B3F5005FE7
:1014640014D0702B37D1CB684A6889680068FFF7BD
:10147400AAFF2268936843F0770393600020012356
:1014840084F83D30002384F83C3010BDCB684A68B2
:1014940089680068FFF797FF2268936843F48043E4
:1014A40093600020EBE7CA6849680068FFF7ABFD6A
:1014B40060212068FFF7BBFD0020E0E7CA684968A7
:1014C4000068FFF78DFD40212068FFF7B0FD002084
:1014D400D5E70020D3E70120D1E70220704701F0CF
:1014E4001F014FF0010C0CFA01FC036A23EA0C0300
:1014F4000362036A8A4013430362704710B50446CB
:101504000846002942D194F83E30DBB2013B18BFB3
:101514000123002B6ED1002851D1022384F83E30E0
:10152400012201462068FFF7DAFF2368334A934219
:1015340003D002F58062934203D15A6C42F4004214
:101544005A6423682D4A934249D0B3F1804F46D060
:10155400A2F57C42934242D002F5806293423ED08F
:1015640002F5806293423AD002F57842934236D033
:1015740002F57052934232D0A2F5943293422ED0A7
:101584001A6842F001021A60002032E0042908D0EF
:1015940008290DD094F84130DBB2013B18BF012378
:1015A400B7E794F83F30DBB2013B18BF0123B0E743
:1015B40094F84030DBB2013B18BF0123A9E70428AB
:1015C40005D0082807D0022384F84130A8E7022375
:1015D40084F83F30A4E7022384F84030A0E79A68F7
:1015E40002F00702062A07D01A6842F001021A60C4
:1015F400002010BD0120FCE70020FAE700000140B4
:1016040010B504460846002942D194F83E30DBB2B6
:10161400013B18BF0123002B6ED1002851D10223B6
:1016240084F83E30012201462068FFF758FF236802
:10163400334A934203D002F58062934203D15A6C39
:1016440042F400425A6423682D4A934249D0B3F1CC
:10165400804F46D0A2F57C42934242D002F580628C
:1016640093423ED002F5806293423AD002F578422A
:10167400934236D002F57052934232D0A2F594329E
:1016840093422ED01A6842F001021A60002032E020
:10169400042908D008290DD094F84130DBB2013B6D
:1016A40018BF0123B7E794F83F30DBB2013B18BF02
:1016B4000123B0E794F84030DBB2013B18BF0123AB
:1016C400A9E7042805D0082807D0022384F841306C
:1016D400A8E7022384F83F30A4E7022384F84030CB
:1016E400A0E79A6802F00702062A07D01A6842F0B7
:1016F40001021A60002010BD0120FCE70020FAE777
:101704000000014090F83C20012A3DD010B403466B
:10171400012280F83C20022280F83D2002685068B3
:10172400946820F0700C086840EA0C0050601A6855
:10173400164882421AD0B2F1804F17D0A0F57C40EF
:10174400824213D000F5806082420FD000F58060A1
:1017540082420BD000F57840824207D000F57050E9
:10176400824203D0A0F59430824204D124F0800454
:10177400496821439160012283F83D20002083F8C9
:101784003C005DF8044B70470220704700000140A4
:10179400002800F09B8070B50D4604464F4B1B6833
:1017A40003F00F038B4208D2CBB24C4A1370136878
:1017B40003F00F038B4240F08B80236813F0020F79
:1017C40017D013F0040F04D0454A936843F4E05350
:1017D4009360236813F0080F04D0414A936843F4DC
:1017E400604393603E4A936823F0F003A1680B437F
:1017F4009360236813F0010F32D06368012B21D06A
:101804009A1E012A25D9364A126812F0020F61D0B5
:1018140033498A6822F0030213438B6000F004FF0B
:1018240006462F4B9B6803F00C036268B3EB820FF0
:1018340016D000F0F9FE801B41F288339842F0D9AB
:10184400032042E0264A126812F4003FE0D101204E
:101854003BE0234A126812F0007FD9D1012034E022
:101864001E4B1B6803F00F03AB4207D9EAB21B4BB4
:101874001A701B6803F00F03AB422DD1236813F0D9
:10188400040F06D0164A936823F4E053E1680B432F
:101894009360236813F0080F07D0114A936823F468
:1018A4006043216943EAC103936000F021F80C4BC3
:1018B4009B68C3F303130B4AD35CD8400A4B1860EC
:1018C4000A4B186800F064FE002070BD01207047C8
:1018D4000120FAE70120F8E70120F6E7003C024086
:1018E4000038024064870008100000200C0000202B
:1018F40008B5464B9B6803F00C03082B05D00C2B52
:1019040043D0042B7FD1424819E0404B5A6802F07F
:101914003F025B6813F4800F12D03C4B5968C1F34B
:1019240088113B480023A1FB0001FEF769FC374BFB
:101934005B68C3F3014301335B00B0FBF3F008BD04
:10194400324B5868C0F388104FEA401CBCEB000CC3
:101954006EEB0E0E4FEA8E1343EA9C634FEA8C1132
:10196400B1EB0C0163EB0E03DB0043EA5173C900D6
:1019740011EB000C43F10003990200234FEA8C2081
:1019840041EA9C51FEF73CFCD1E7204B5A6802F037
:101994003F025B6813F4800F10D01C4B5968C1F3ED
:1019A40088111B480023A1FB0001FEF729FC174BFB
:1019B4005B68C3F30273B0FBF3F0C0E7134B5868E2
:1019C400C0F388104FEA401CBCEB000C6EEB0E0E0B
:1019D4004FEA8E1343EA9C634FEA8C11B1EB0C017E
:1019E40063EB0E03DB0043EA5173C90011EB000CF7
:1019F40043F10003990200234FEA8C2041EA9C51F1
:101A0400FEF7FEFBD3E7034899E700BF0038024026
:101A140040787D010024F400002800F0018270B5B4
:101A240082B00446036813F0010F41D0994B9B68C0
:101A340003F00C03042B32D0964B9B6803F00C0389
:101A4400082B27D0934B9B6803F00C030C2B59D025
:101A54006368B3F5803F5BD0B3F5A02F5ED08D4BA8
:101A64001A6822F480321A601A6822F480221A60FA
:101A74006368002B5CD000F0D7FD0546854B1B68DE
:101A840013F4003F14D100F0CFFD401B6428F5D9B6
:101A94000320CCE17F4B5B6813F4800FD2D07D4BE5
:101AA4001B6813F4003F03D06368002B00F0BA8175
:101AB400236813F0020F60D0764B9B6813F00C0F71
:101AC4004AD0744B9B6803F00C03082B3FD0714B36
:101AD4009B6803F00C030C2B69D0E368002B75D0D2
:101AE4006D4B01221A6000F09FFD0546694B1B688F
:101AF40013F0020F61D100F097FD401B0228F5D9C5
:101B0400032094E1634B5B6813F4800FA0D0C6E715
:101B1400604A136843F480331360A9E75D4B1A6885
:101B240042F480221A601A6842F480321A609FE7F5
:101B340000F07AFD0546574B1B6813F4003FB7D0FD
:101B440000F072FD401B6428F5D903206FE1514B6E
:101B54005B6813F4800FBAD14E4B1B6813F0020F6D
:101B640003D0E368012B40F05F814A4A136823F0F5
:101B7400F803216943EAC1031360236813F0080FD3
:101B840049D06369002B33D0434B0122C3F8802E24
:101B940000F04AFD05463F4B5B6F13F0020F3AD14C
:101BA40000F042FD401B0228F5D903203FE1394BE8
:101BB4005B6813F4800F90D1CEE7364A136823F0A4
:101BC400F803216943EAC1031360D6E7324B0022CC
:101BD4001A6000F029FD05462E4B1B6813F0020F16
:101BE400CBD000F021FD401B0228F5D903201EE1D3
:101BF400294B0022C3F8802E00F016FD0546254B24
:101C04005B6F13F0020F06D000F00EFD401B02289C
:101C1400F5D903200BE1236813F0040F76D01D4B94
:101C24001B6C13F0805F33D100230193194B1A6CA2
:101C340042F080521A641B6C03F080530193019BA1
:101C44000125164B1B6813F4807F29D0A368012B50
:101C54003AD0052B3ED00F4B1A6F22F001021A67BF
:101C64001A6F22F004021A67A368002B3CD000F01C
:101C7400DBFC0646074B1B6F13F0020F45D100F047
:101C8400D3FC801B41F288339842F3D90320CEE081
:101C94000025D6E7003802400000474200700040AB
:101CA4006B4A136843F48073136000F0BDFC06466E
:101CB400674B1B6813F4807FC8D100F0B5FC801B10
:101CC4000228F5D90320B2E0624A136F43F00103FE
:101CD4001367C9E75F4B1A6F42F004021A671A6F61
:101CE40042F001021A67BFE700F09EFC0646594B1A
:101CF4001B6F13F0020F08D000F096FC801B41F21A
:101D040088339842F3D9032091E0EDB9A369002BFD
:101D140000F08C804F4A926802F00C02082A54D0DA
:101D2400022B17D04C4B00221A6600F07DFC0446AF
:101D3400484B1B6813F0007F45D000F075FC001B76
:101D44000228F5D9032072E0424A136C23F0805331
:101D54001364DBE7404B00221A6600F065FC05467D
:101D64003C4B1B6813F0007F06D000F05DFC401B69
:101D74000228F5D903205AE0E369226A1343626A10
:101D840043EA8213A26A5208013A43EA0243E26A2E
:101D940043EA0263226B43EA02732E4A53602E4BDA
:101DA40001221A6600F040FC04462A4B1B6813F01B
:101DB400007F06D100F038FC001B0228F5D903206F
:101DC40035E0002033E0002031E0012B31D0214BFD
:101DD4005B6803F48001E26991422CD103F03F0275
:101DE400216A8A4229D1616A47F6C0721A40B2EB6D
:101DF400811F24D103F44031A26A5208013AB1EBA5
:101E0400024F1ED103F07062E16AB2EB016F1AD186
:101E140003F0E043226BB3EB027F16D1002006E00F
:101E240001207047012002E0012000E0002002B000
:101E340070BD0120FBE70120F9E70120F7E701204D
:101E4400F5E70120F3E70120F1E70120EFE700BF08
:101E540000700040003802400000474200230F2B6E
:101E640000F2E38070B582B065E085684FEA430E06
:101E7400032404FA0EF425EA0405CC6804FA0EF4EB
:101E84002C438460446824EA02044A68C2F30012C2
:101E94009A40224342605CE0DC08083450F8242075
:101EA40003F00705AD004FF00F0E0EFA05FE22EA0F
:101EB4000E0E0A69AA4042EA0E0240F824205CE0B1
:101EC400062200E0002202FA0EF22A430234574DA1
:101ED40045F82420564A94686FEA0C0224EA0C055B
:101EE4004E6816F4801F01D04CEA0405504CA560DE
:101EF400E46802EA04054E6816F4001F01D04CEAB7
:101F040004054B4CE560646802EA04054E6816F467
:101F1400003F01D04CEA0405454C6560246822402A
:101F24004D6815F4803F01D04CEA0402404C226015
:101F340001330F2B77D801229A400C6804EA020C73
:101F440032EA0404F4D14C6804F00304013C012C8B
:101F54008BD94A6802F00302032A09D0C4685D00E1
:101F64000322AA4024EA02048A68AA402243C260E7
:101F74004A6802F00302022A8ED004684FEA430E34
:101F8400032202FA0EF224EA02044A6802F003026F
:101F940002FA0EF2224302604A6812F4403FC7D0AC
:101FA40000220192234A546C44F480445464526CD9
:101FB40002F480420192019A9C08A51C1B4A52F823
:101FC400255003F0030E4FEA8E0E0F2202FA0EF292
:101FD40025EA0205184A90423FF474AF02F5806284
:101FE400904216D002F58062904214D002F58062CD
:101FF400904212D002F58062904210D002F58062C5
:1020040090420ED002F5806290423FF459AF07220D
:1020140059E7012257E7022255E7032253E7042236
:1020240051E705224FE702B070BD70470038014008
:10203400003C014000380240000002400AB18161C6
:1020440070470904816170477047000008B5054B6B
:102054005B69034200D108BD024B5861FFF7F4FFEE
:10206400F9E700BF003C014030B405682C6824F453
:1020740080242C60046863608368402B05D0036867
:1020840099600368DA6030BC704703689A6003683B
:10209400D960F8E710B40368D9B210390A4AA2FB30
:1020A40001421209094CA25CC2655F2907D96FF38A
:1020B400090304338365806D5DF8044B70476FF347
:1020C40009038365F7E700BFABAAAAAA5C870008E7
:1020D400836A826992B9012B0AD0022B02D00BB118
:1020E40000207047C36A13F0807F28D10020704716
:1020F400C36AB3F1C07F24D000207047B2F5005FFB
:1021040009D0022B25D9032B25D1C36A13F0807F74
:1021140023D100207047032B03D8DFE803F0140415
:10212400140A00207047C36A13F0807F0DD1002089
:102134007047C36AB3F1C07F09D000207047012003
:10214400704701207047012070470120704701202B
:10215400704701207047002070470120704700003D
:1021640070B5044600F060FA002C5BD005460223EB
:1021740084F83530002384F834302268136823F05F
:102184000103136023681A6812F0010F0AD000F0EB
:102194004BFA431B052BF5D920236365032084F8F0
:1021A400350070BD1A68204911406268A068024376
:1021B400E06802432069024360690243A069024364
:1021C400E0690243206A02430A43616A04291ED07B
:1021D4001A602668756925F00705636A1D43042B98
:1021E40007D1A36A1D43E36A1BB12046FFF770FFC2
:1021F40090B975612046FFF74DFFE26D3F23934090
:10220400836000206065012384F83530C9E7E16A02
:10221400206B01430A43DBE740236365012084F814
:102224003500BEE70120BCE73F8010F038B5044616
:10223400856D90F8340001282BD0012084F83400F7
:1022440094F83500C0B2012804D0002384F8343057
:10225400022038BD022084F8350000206065204645
:10226400FFF702FFE26D3F239340AB6022681368DF
:1022740043F016031360236C23B12268136843F000
:10228400080313602268136843F0010313600020FD
:10229400DFE70220DDE790F83530DBB2022B03D014
:1022A4008023436501207047052380F83530026898
:1022B400136823F00103136000207047F0B583B066
:1022C400044600230193724B1D68724BA3FB053532
:1022D400AD0A876D3E68C26D08239340334210D027
:1022E40003681A6812F0040F0BD01A6822F0040273
:1022F4001A60C26D08239340BB60436D43F0010331
:102304004365E26D01239340334209D02268526948
:1023140012F0800F04D0BB60636D43F00203636569
:10232400E26D04239340334209D02268126812F00C
:10233400020F04D0BB60636D43F004036365E26D78
:1023440010239340334224D02268126812F0080FFD
:102354001FD0BB6023681A6812F4802F0DD01B684D
:1023640013F4002F04D1236C9BB12046984710E04E
:10237400A36C73B1204698470BE01A6812F4807F6F
:1023840003D11A6822F008021A60236C0BB12046AC
:102394009847E26D20239340334255D02268126857
:1023A40012F0100F50D0BB6094F83530DBB2052B1F
:1023B4000ED023681A6812F4802F33D01B6813F4EC
:1023C400002F2AD1636C002B3ED0204698473BE077
:1023D4002268136823F0160313602268536923F0FC
:1023E40080035361236CA3B12268136823F00803AC
:1023F4001360E26D3F239340BB60012384F83530C2
:10240400002384F83430236D002B3FD020469847B6
:102414003CE0A36C002BE7D1EBE7E36BA3B12046D0
:10242400984711E01A6812F4807F09D11A6822F0E3
:1024340010021A60012384F83530002384F8343004
:10244400E36B0BB120469847636DFBB1636D13F0EA
:10245400010F17D0052384F835302268136823F060
:1024640001031360019B01330193AB4204D8236839
:102474001B6813F0010FF5D1012384F835300023D4
:1024840084F83430E36C0BB12046984703B0F0BDB8
:1024940010000020B5814E1B002807DB00F01F024E
:1024A400400901239340024A42F82030704700BF9C
:1024B40000E100E0002808DB0901C9B200F1604036
:1024C40000F5614080F80013704700F00F00090127
:1024D400C9B2014B1954704714ED00E000B500F087
:1024E4000700C0F1070CBCF1040F28BF4FF0040C27
:1024F400031D062B0FD9C31E4FF0FF3E0EFA0CF03E
:1025040021EA000199400EFA03FE22EA0E0241EA92
:1025140002005DF804FB0023EEE70000074AD368DD
:1025240023F4E0631B041B0C000200F4E06003438B
:1025340043F0BF6343F40033D360704700ED00E021
:1025440010B50446054BD868C0F30220FFF7C6FF58
:1025540001462046FFF7AEFF10BD00BF00ED00E0CE
:1025640008B5FFF799FF08BD0138B0F1807F0BD2A1
:102574004FF0E0235861054AF02182F8231000202F
:10258400986107221A6170470120704700ED00E04E
:1025940010B504460E4B1A784FF47A73B3FBF2F37A
:1025A4000C4A1068B0FBF3F0FFF7DEFF68B90F2C9C
:1025B40001D901200AE0002221464FF0FF30FFF745
:1025C400BFFF054B1C60002000E0012010BD00BFD0
:1025D40008000020100000200C00002008B50B4B60
:1025E4001A6842F400721A601A6842F480621A602F
:1025F4001A6842F480721A600320FFF78FFF0F20DD
:10260400FFF7C6FFFEF7C0FB002008BD003C0240F8
:10261400034A1168034B1B780B441360704700BFD7
:102624002801002008000020014B1868704700BFF3
:1026340028010020034AD2F8883043F47003C2F81A
:102644008830704700ED00E0DFF834D0FFF7F2FF88
:102654000C480D490D4A002302E0D458C4500433F9
:10266400C4188C42F9D30A4A0A4C002301E01360CF
:102674000432A242FBD300F019F8FEF7A3F9704725
:1026840000000220000000201400002084870008BD
:10269400140000202C010020FEE70244034693426C
:1026A40000D1704703F8011BF9E7000070B50D4D28
:1026B4000D4C641BA4100026A64209D10B4D0C4CF2
:1026C40000F018F8641BA4100026A64205D170BDC2
:1026D40055F8043B98470136EEE755F8043B984714
:1026E4000136F2E77C8700087C8700087C870008B5
:1026F40080870008F8B500BFF8BC08BC9E46704748
:0C270400F8B500BFF8BC08BC9E4670474A
:1027100053696E6500000000536177746F6F7468D1
:1027200000000000547269616E67756C6172000090
:102730005069616E6F000000477569746172000036
:102740004472756D000000002020202020202020F1
:10275000202020202020202000000000FF07000073
:10276000FF070000FF070000FF070000000800004F
:10277000FE070000FD070000FA0700000208000045
:10278000020800000008000001080000FA0700002D
:102790003F070000BF080000480A0000460800008C
:1027A0009D020000FA0F0000440000001B0600001C
:1027B000FB0F000000000000790A0000F80F000085
:1027C0001E030000FB040000D40800007301000099
:1027D000990500003D050000F305000038080000E1
:1027E0001B0E0000DA0F0000290F0000460A00004F
:1027F0008C080000A6060000020000000000000097
:102800009F0300001A090000CD090000020A000021
:10281000F10C0000B40C0000020D0000DF0C000001
:1028200005060000E401000038040000B0060000C6
:10283000ED08000040090000F20600001508000045
:102840007E0800003C08000065090000D708000071
:102850006E080000C6080000F1070000B105000086
:10286000310400002B060000AA070000C108000088
:10287000860A00008F0A000041090000D509000007
:10288000BD09000097070000380600005F05000042
:102890004B0500009C06000088070000930800001C
:1028A0003D0A00004E0A000002090000180800005E
:1028B00062070000350700008A0700000D080000CD
:1028C00069080000BB0700004B070000610700001B
:1028D00050070000A5070000EE070000790800007F
:1028E00091090000D1090000690900006308000097
:1028F000B7060000D7050000C4050000CD060000A3
:10290000DF070000F80800006B09000082090000E2
:10291000400900000009000088070000B30600001D
:102920008F060000ED060000F6070000AA08000070
:10293000C9080000910800000E0800009B07000075
:102940005F0700005907000006080000C2080000E9
:10295000F3080000A60800002F0800008E07000002
:102960001E0700000907000054070000C30700000D
:102970005D080000C0080000E1080000B208000087
:1029800039080000EA070000950700004E07000024
:102990004C070000B4070000220800006D0800008A
:1029A0007808000044080000F7070000A5070000B1
:1029B0009E070000DB0700001C0800004C08000018
:1029C000550800003308000001080000C907000096
:1029D000A1070000A5070000CE07000011080000B5
:1029E000460800003F0800001F080000180800000B
:1029F0000C080000F0070000DA070000BE07000026
:102A0000CC070000E5070000FA07000010080000EE
:102A1000330800004A0800004408000024080000B1
:102A2000EB070000C0070000B8070000C307000064
:102A3000E2070000000800001B0800002708000053
:102A40001F0800000B08000003080000F407000046
:102A5000F0070000FE0700000E0800003708000025
:102A6000030800000F070000B9070000BA060000C5
:102A7000B8090000E2090000530A0000000000004D
:102A8000F40F00008207000008000000FB0F0000A8
:102A90000F0C00005B020000ED0A0000680300005C
:102AA000DF01000033070000DC0600002307000000
:102AB000720B0000340F0000FF0F0000D70C000065
:102AC000800800001809000050000000000000000D
:102AD00006000000AF0600005F0A00006609000063
:102AE000FE0A0000480D00008C0C0000AC0D000038
:102AF0006D0A0000FA0200008F020000A20500002B
:102B00009107000029090000FE070000540700009B
:102B1000A708000024080000D00800007109000088
:102B200091080000800800009208000013070000D0
:102B300094040000ED04000010070000EF070000FF
:102B4000A9090000F80A0000E30900005A09000082
:102B50000A0A0000C2080000CD060000CB050000F4
:102B600017050000D005000025070000D30700006E
:102B70006A0900009B0A0000BE09000089080000E5
:102B8000BA0700002907000066070000BB07000025
:102B9000630800002B080000620700004D070000DA
:102BA0005907000065070000CD0700002908000054
:102BB00008090000A40900005A09000031090000BA
:102BC0006C0700007D060000A4050000540600000C
:102BD000520700005708000039090000A30900004F
:102BE000530900003C0900005108000016070000CE
:102BF0009806000093060000470700006B080000DD
:102C0000D4080000B308000058080000C007000006
:102C100074070000580700009307000072080000C6
:102C2000EB080000D808000071080000D50700007C
:102C30004F0700001007000017070000870700007B
:102C40000C08000099080000DB080000D408000010
:102C5000850800000E080000BA0700007007000099
:102C60003E07000072070000E40700004F08000064
:102C70007F0800006508000026080000D10700005A
:102C800095070000B2070000F607000039080000B1
:102C9000560800004708000025080000E70700006C
:102CA000B5070000A6070000C1070000F0070000FC
:102CB000300800004B080000300800001A0800002F
:102CC0001508000001080000E5070000CB07000020
:102CD000C3070000D9070000EE070000000800004D
:102CE000210800003C0800004B08000037080000E5
:102CF0000C080000D6070000B8070000BC07000061
:102D0000D1070000EF0700000908000022080000BA
:102D1000280800001A08000005080000F907000054
:102D2000EB070000F40700000D0800002508000074
:102D30000F080000CB07000030030000FF0F000069
:102D400004000000220F0000CB0E0000080000006D
:102D5000ED030000ED0F00000B0000005705000020
:102D6000EE0D0000BC0500004B070000E508000068
:102D7000250B000060090000D6090000F4070000E0
:102D80005208000075050000280600006E090000CA
:102D90008708000011070000BE030000BE04000009
:102DA000360A00007F090000D8040000FE09000078
:102DB000BF090000A0080000B9060000C30A000017
:102DC000020700002A080000A0080000DD0600003D
:102DD0005C070000760900006A0700004D0600004D
:102DE00060080000D5080000CA060000E2070000E5
:102DF0005408000070060000DD070000A10A000072
:102E00002D070000C20700006A09000060070000EB
:102E100035080000140900005F070000CF0700001C
:102E2000D008000075070000BD070000C5080000BD
:102E30002D0800007C0700004A080000FE07000083
:102E4000760700001B080000410800008B07000007
:102E5000060800002D080000A8070000E707000092
:102E60003D08000005080000DA0700001208000015
:102E700018080000DE0700001E0800001E08000001
:102E8000D70700003308000053080000FC070000CB
:102E9000E40700000B080000DE070000BF07000089
:102EA000F7070000DF070000E40700002F0800001C
:102EB000230800000B0800001B0800003F0800006A
:102EC00003080000F607000002080000D607000013
:102ED000F1070000020800000F080000E2070000F0
:102EE000F307000020080000EC07000006080000BF
:102EF0000908000018080000FC0700002B0800006B
:102F0000F40700001308000014080000E6070000A2
:102F1000E3070000FE070000F8070000F7070000C5
:102F2000030800000E080000F00700000008000081
:102F3000E0070000F0070000FB0700001208000097
:102F4000FE070000FC07000006080000F80700006C
:102F5000FA07000000080000E8070000FD07000075
:102F60000308000003080000FB070000FD07000045
:102F7000F90700000108000008080000050800002B
:102F8000FB0700001008000001080000F80700001F
:102F90000008000005080000FD070000FE07000013
:102FA000FF070000F5070000FC070000F90700001C
:102FB000FF070000FE07000004080000F8070000FB
:102FC000F60700000308000001080000F9070000F0
:102FD000F3070000FD07000003080000FC070000E5
:102FE000EB07000002080000FD070000F4070000E6
:102FF000FC070000070800000A08000001080000A4
:10300000F70700001F080000BE050000EF0E0000DB
:103010000300000051040000FF0F0000000000004A
:103020000C090000F60F000046040000AA0500008D
:103030001606000097010000E4070000DB05000011
:1030400099050000C4090000F10D0000260F0000E2
:10305000A40F0000B90900007B080000070500006C
:103060000100000000000000AA040000F10A0000B6
:10307000380A00000C0A00006F0D0000980B0000D9
:10308000B10D0000260D00003A0400002E000000E3
:10309000CD030000DD05000077080000D80900001E
:1030A0008F07000091080000260900009A0900001F
:1030B000F5080000110900001008000037080000A2
:1030C00084070000290500008F030000A20600000D
:1030D000ED070000AA0A0000C30C00000F0A000060
:1030E000780800007309000083080000BA06000099
:1030F000770500005E050000C405000040070000E1
:10310000CE07000075080000190A00009A0A0000A6
:1031100082090000B7080000F7060000C50600009D
:10312000330700002F0800001C08000030070000D3
:103130009B0600009D060000F90700009B090000A7
:10314000CE0900007F090000AD0900005E08000004
:10315000F20700007C06000051050000F4050000A5
:103160000C070000F908000095090000A009000004
:10317000EF080000E90700006107000026070000D3
:10318000C2070000D0070000250800005E0800000C
:10319000840800001D08000012080000430700001A
:1031A000B2060000C8060000B1070000C508000014
:1031B00097090000F9090000C8080000BA070000DC
:1031C000040700006C0600000B0700006C070000FD
:1031D0003C080000B10800006E090000D40800009F
:1031E000D70700007207000016070000460700001E
:1031F0009A070000600800004E0800003708000031
:10320000A308000054080000200800002807000060
:1032100043070000BE0700003E080000160800003B
:103220002F0800006008000080080000FE07000072
:10323000510700007B070000BB070000F3070000F8
:10324000540800000F080000220800001D080000BC
:10325000C707000087070000B10700002208000030
:10326000E9070000CF070000F60700003D08000056
:1032700057080000F80700001708000020080000A9
:10328000CC07000089070000C0070000EC07000021
:1032900017080000FC0700003408000022080000A6
:1032A00068080000FB070000E6070000DF070000D9
:1032B000C5070000C10700000B080000DD07000083
:1032C0001B0800000908000013080000E6070000C2
:1032D000F70700002A080000780800001C0800001A
:1032E00027090000C406000039080000D2080000C9
:1032F000F9060000E6080000B607000054080000C8
:103300004D07000096080000D40800009E0600004B
:10331000EE070000D70700001B08000006070000AA
:10332000780700008A080000C7070000690700004E
:103330002D08000083080000900800009708000096
:10334000D308000011070000E70700002B08000069
:10335000F00700002A08000006080000B10700007E
:103360000B0800002B08000001080000670800009F
:103370007207000025080000A6070000F9070000FA
:1033800020080000E2070000450800006608000071
:10339000E2070000FB070000CE070000EF07000077
:1033A00030080000C0070000FC0700001B080000F8
:1033B000E60700002C080000E1070000F707000006
:1033C0002A080000DF07000002080000F8070000DC
:1033D000FE0700000B08000003080000FD070000C6
:1033E0001B080000EE070000F7070000F4070000CC
:1033F000E10700000A080000000800000E080000B5
:10340000220800000608000009080000F807000074
:10341000F1070000F8070000FE07000005080000A3
:1034200001080000F407000005080000F307000091
:10343000F2070000FE070000C407000019080000A2
:1034400086070000FD0700000F080000EE070000DF
:103450002A080000FB07000002080000FD0700002A
:1034600006080000F307000035080000C50700004B
:103470001F08000017080000E30700000208000012
:10348000FE0700000F080000EA070000F807000030
:10349000F107000011080000F7070000060800000F
:1034A00017080000FF0700000F080000F8070000E1
:1034B000F507000005080000FB070000F907000001
:1034C00008080000EB0700000A080000F0070000F1
:1034D000F1070000FF070000FF0700000B080000D5
:1034E000130800000F080000150800000408000081
:1034F000FC070000F8070000EF070000F2070000DB
:10350000EE070000F7070000F907000004080000BC
:103510000108000006080000050800000608000079
:103520000508000003080000FD0700000308000074
:10353000FF070000FA070000FB070000FB07000080
:10354000F9070000F907000000080000FF0700006D
:103550000408000001080000FE0700000308000046
:10356000FD07000000080000FF0700000108000040
:103570000008000000080000FA070000FA07000039
:10358000F9070000FA070000FC070000FF07000031
:1035900001080000080800000308000006080000F9
:1035A000FC070000FB070000FE070000F907000011
:1035B00009080000190900001108000013070000A5
:1035C000FB08000071080000B70700000C0A0000AB
:1035D00098070000A609000051080000C00500007F
:1035E000A207000016090000DE0700002A070000FD
:1035F00073080000E10600003C0900006D070000B0
:103600002A090000870800001F0800009B06000030
:10361000D1080000ED060000C00600002D080000E3
:10362000B2070000CB070000BF070000B80700008A
:103630002B08000081070000EA070000C508000011
:10364000B3070000860700006E08000004080000B1
:103650005008000075070000F6070000D8070000BA
:10366000D60700001D080000C6070000E50700009F
:1036700039080000DD070000ED07000040080000E9
:1036800012080000350800001B080000B607000003
:103690003E080000F8070000B407000051080000D1
:1036A0002708000030080000550800000A08000044
:1036B000F9070000F8070000FE07000024080000DA
:1036C0000B080000F50700000E080000EC070000E2
:1036D00008080000ED07000005080000FE070000D4
:1036E00002080000FC0700000A080000FF070000B5
:1036F00006080000FA070000F7070000FA070000BC
:10370000FF070000FA070000FF07000004080000A0
:10371000FF070000F707000041080000F80700005D
:1037200015080000000800001C0800000508000043
:10373000EE070000F40700000D080000F707000086
:10374000FB070000CF070000140800000408000079
:10375000FC070000F3070000F10700004C07000021
:103760004C0700004C0700004C0700004C0700000D
:103770004C0700004C0700004C0700004C070000FD
:103780004C0700004C0700004C0700004C070000ED
:103790004E070000470700003A070000DC06000063
:1037A0001E0700006D070000BA070000CE050000EC
:1037B000BD080000B1070000D30400000C0A00009F
:1037C000AA06000053060000560A0000BB020000D3
:1037D00054070000F50B00003A0300008C070000BE
:1037E000A80900001705000021070000530700008A
:1037F000A908000068080000A0030000D30800002A
:1038000069090000A40400000B080000C8080000BB
:103810001F0600008C060000A90600000D0900002C
:1038200017080000D4030000EB080000990900000D
:103830001B040000D3070000B40900006B05000062
:10384000D60600001C0800005607000034080000DF
:103850001E050000CC070000D70900005A04000034
:1038600000070000150A0000DA050000130600003A
:1038700020080000020800009E0700000D0500005F
:103880005C080000F208000040040000D3070000BC
:10389000BC09000089050000440600001108000072
:1038A000F907000097070000770500007008000086
:1038B000D808000052040000040800008E0900002F
:1038C0007C050000A006000019080000B0070000F9
:1038D0008C070000DF0500006A0800006B0800008C
:1038E000C0040000FE0700003E090000D0050000F3
:1038F000AC06000013080000BC070000F206000040
:1039000033060000A108000001080000F2040000D6
:103910004508000009090000B4050000E3060000A6
:103920000B080000890700000B07000026060000B6
:1039300097080000FE070000DD0400009D0800005D
:103940000B090000790500003F0700003B0800005C
:1039500048070000FF06000084060000740800000D
:10396000A207000017050000AB080000A80800002F
:10397000960500006A070000280800004E070000B6
:10398000D30600009E060000A10800005F070000AB
:103990002A050000DD0800005F0800007605000031
:1039A000A307000049080000F3060000D00600004D
:1039B000F3060000850800003407000052050000EF
:1039C000F10800003608000048050000DE0700008E
:1039D0006F080000DC060000CC0600001C07000099
:1039E00085080000090700005405000018090000C0
:1039F000FB07000017050000190800006908000017
:103A0000A6060000EC0600003F0700007C0800004E
:103A1000FA0600009105000026090000BD0700001D
:103A20001E0500004608000062080000680600004D
:103A3000F70600005F0700004F080000E2060000E4
:103A4000B4050000280900009B0700000D050000D8
:103A50007E0800005B0800003E060000270700000B
:103A6000800700000B080000EB060000DD050000E9
:103A7000030900008607000013050000EB080000A2
:103A800068080000CA050000F30600004D080000A9
:103A9000C80700000909000092040000CF070000D9
:103AA000F50700002E04000073080000390700002D
:103AB000BD0500006C060000C50900009E0800005E
:103AC000500700004A060000830800008807000035
:103AD0004C0400003209000085060000F8050000D3
:103AE000B1060000EB08000034080000DC0700000D
:103AF000320600003F090000F2060000BC0400008E
:103B0000F3080000340600002D060000B606000091
:103B100025090000BE070000AA0700008A06000071
:103B2000560900003C070000FC0400002B090000BF
:103B3000000600007905000031070000F0080000D1
:103B400044070000D1070000A0060000B4090000EF
:103B50001D07000054050000EE080000F8050000F5
:103B6000C8050000FF06000024090000A6060000AA
:103B7000A307000009070000930900003C070000AC
:103B8000A3050000E90800003B060000A4050000B2
:103B9000F2060000510900009A060000F307000039
:103BA00079070000FF0700004E0600007F050000B7
:103BB0007B0B0000810600002B090000C4030000FD
:103BC000A60C00001D070000FA01000023030000FE
:103BD000810500002D0B00002F090000BF07000029
:103BE00093080000790B0000D2050000F80B0000DC
:103BF00013000000D80000002C0F00004606000053
:103C0000360600008C07000000000000C30A000018
:103C1000390B0000BE030000D20D0000A00100001F
:103C200056080000490D0000ED0100003A0B0000AD
:103C3000820600001E0300008C06000048020000FF
:103C4000AB0C0000800E00002702000031070000CE
:103C50009206000091060000320D0000FF020000F5
:103C60004D030000A8080000E9020000FF0F00005B
:103C70009B0800009D010000CF0A0000C402000064
:103C8000EC090000B5070000E0050000D00A0000C4
:103C9000DE0500009B020000D10C000014070000AC
:103CA000C4040000FB09000070000000420C00008A
:103CB000C306000026090000D00A0000C801000069
:103CC000BD0500000A0A0000550800008305000039
:103CD000D608000089040000760B0000A304000051
:103CE0008108000045090000FC03000030080000C6
:103CF000A4060000980700003C0800004C080000E3
:103D0000DE0600005B0700006006000049080000B6
:103D1000D907000047060000D9070000C9060000C7
:103D20003207000021080000A1060000490700003A
:103D3000A0070000B6060000D707000052070000E9
:103D40001E070000E5070000EA060000FE0600006E
:103D50007B070000490700008D07000013070000E3
:103D600044070000A5070000D2060000CA070000B3
:103D700070070000E80600006A070000170700004F
:103D80005F070000630700001E070000C507000072
:103D90004E0700000E070000AE070000EF0600000F
:103DA000860700001107000013070000D607000077
:103DB000BD06000063070000D207000003070000F3
:103DC0005E0700006007000000070000AC0700006D
:103DD000FF060000480700008B070000C006000037
:103DE0008B070000630700004F07000080070000FA
:103DF0001C070000770700007C070000E2060000B7
:103E00009807000050070000E40600008607000045
:103E10001F0700006E070000470700003B07000077
:103E2000AA070000240700002707000093070000EE
:103E30003A070000220700002107000043070000A6
:103E400087070000180700006E07000072070000D7
:103E50001807000067070000620700004D07000018
:103E60003507000014070000730700005807000022
:103E70000D070000800700005D0700003607000006
:103E80004307000055070000940700000E070000DC
:103E90004B0700006D0700005307000022070000D9
:103EA00068070000320700002F0700004D070000E0
:103EB0004D0700008E0700001D070000640700008A
:103EC0004207000075070000580700004607000081
:103ED0007C0700000D0700002E070000750700009A
:103EE0004E070000110700007807000028070000B7
:103EF0008F0700001707000064070000920700000A
:103F0000040700003E0700003207000052070000CF
:103F1000390700008C07000038070000690700001F
:103F20000D070000970700007A0700000D0700004A
:103F300040070000270700005F0700001607000089
:103F400071070000560700006F070000110700000E
:103F500084070000500700003D07000057070000DD
:103F60001107000075070000F70600008507000034
:103F70007A0700003C0700002307000076070000D6
:103F80005307000073070000350700001F070000FB
:103F900075070000D70600009C07000046070000D8
:103FA0001F0700000A0500009B070000C70A000069
:103FB0003B0500004F09000054050000B408000054
:103FC000A7060000920600009E0600008305000080
:103FD000A80900001C060000E8080000D90600003F
:103FE000630700008206000039080000C9070000CE
:103FF00021060000090800009005000030080000BC
:1040000006070000AF070000FC060000FE070000E6
:10401000B2060000B9080000D8060000EE06000055
:10402000CA07000082050000FE08000059060000D3
:10403000E607000078070000A40700001E07000044
:10404000580800004D060000AF0700007F07000081
:1040500026060000DB07000086060000E9070000D6
:10406000DE0600008C080000E8060000440800009E
:104070003D060000C6070000F606000079060000B5
:104080000F0800001B0600008A080000430600001D
:10409000AF08000009070000AE070000A7060000F7
:1040A000F3070000C906000005070000B007000084
:1040B000DB0500003308000031060000060900009F
:1040C000D50600002608000079060000C60700009B
:1040D00037070000D4060000B107000050060000BA
:1040E000D8070000D00600000E08000006070000F8
:1040F00083070000260700005E0700005D07000040
:10410000280700006407000009070000830700007B
:104110001E0700008507000035070000600700004B
:104120003F0700004D07000040070000380700006F
:10413000780700001A070000870700002E0700001C
:1041400063070000470700004E0700004707000014
:104150004C0700004B0700003B0700005C07000015
:104160003307000076070000230700007A070000ED
:10417000320700005F0700004E07000047070000FD
:104180004E070000390700005B0700003007000001
:104190006F0700002D0700006907000037070000C7
:1041A0006207000046070000520700004F070000AA
:1041B00042070000430700004B07000057070000BC
:1041C00033070000700700002E0700006907000099
:1041D000530700004B07000042070000480700009B
:1041E00048070000480700004D0700004A0700008C
:1041F0004F0700004B0700005B070000430700006B
:104200005F0700003D070000510700004007000065
:104210004D0700004C07000053070000490700004D
:10422000D30700008706000087090000FF05000093
:10423000400400007A0B000024060000FE06000087
:1042400007070000A0040000380800006C0600000A
:104250003D0900004306000028040000110A000088
:10426000470400004D0A00006D0700002503000010
:10427000640A0000FC030000F00A000004060000CD
:104280007D0500000F09000098050000A30B000049
:10429000AF0500005F0600001A0900007605000067
:1042A000980B0000DD060000990500009D08000045
:1042B00026050000450A000075060000AA06000059
:1042C000B507000000040000B50A000097050000D3
:1042D000BD070000570700000C040000FF090000A4
:1042E000CC050000AD090000770500005605000070
:1042F00032090000D4050000CE0A0000FB050000D2
:1043000052050000DA0800004C060000DF0A000039
:104310005E060000CC050000720800007C0500006D
:10432000A10A00007E060000480600000708000001
:1043300070040000DC0A0000AF0500009D070000CB
:1043400009070000710400005B0A00009C050000E2
:10435000130900003F060000020500008709000065
:1043600099060000B6090000510600006D05000026
:10437000C308000085060000610A000095060000E1
:10438000A805000076080000ED050000850A000081
:104390005606000052060000CB070000EC040000A7
:1043A000E50A0000280500008B0700001107000047
:1043B000010500004C0A0000AC05000038080000B0
:1043C000AB06000043050000890900001E0600003E
:1043D000260900007B060000770500007409000034
:1043E0002E060000CB090000B3060000C505000042
:1043F000D8080000E40500005D0A00002406000063
:10440000120600008308000045050000700A000045
:10441000AA050000CC060000900700001F05000060
:10442000260A000085050000B6070000DC06000033
:1044300045050000E5090000D6050000A1080000C0
:10444000DB060000AA050000330900008806000012
:104450001D090000C1060000BA0500001E09000089
:1044600025060000DE09000085060000D0050000DA
:10447000D608000085050000720A00008C050000C7
:10448000C0060000B207000059050000290A00001C
:104490007C0500008B070000FD060000B70500004A
:1044A0009D09000007060000F7070000070700004D
:1044B000990500007309000048060000A0080000EC
:1044C000220700005C050000AA09000004060000A5
:1044D000B30900006B060000E3050000DB080000E4
:1044E000AE0500002B0A0000F5050000790600006B
:1044F000B2070000B7050000220A0000A90500006D
:10450000ED060000BC070000F7050000D60800001B
:104510009F08000071060000FD050000ED05000089
:10452000A90A000060050000EB0900001C0600005D
:10453000E7040000480900004D07000025090000BD
:1045400037070000620500004E0800003306000037
:104550007B0A0000960600001D060000DD07000033
:104560001E0500007F0A0000EB050000CA070000DE
:104570006006000034060000E00800001F0700008D
:10458000AD0600001E08000097040000A509000009
:1045900055060000A2080000600600004606000064
:1045A00047080000DF0600009E08000063070000C7
:1045B00004050000EF09000014050000870A000050
:1045C0008D050000EA060000FB060000EC06000076
:1045D000B50800000B070000FF05000009080000F7
:1045E00065050000010A00003F0600008507000085
:1045F00059070000DF05000064090000770600008D
:10460000310800002307000006060000DA08000059
:10461000F406000054080000BF070000700400000A
:104620001209000085050000A60A0000920700009C
:10463000EF030000F808000001080000190700005F
:104640007E090000640A0000EB0300005A06000027
:104650004F0900004105000059040000C804000093
:10466000A20A0000670700002B000000A300000062
:10467000570800006305000069070000D002000031
:10468000560700000E04000063050000BC04000093
:1046900042030000C30B0000CA0800005E080000CF
:1046A00003090000F9070000E30D0000BE08000048
:1046B000AE070000EE07000028070000E40C000031
:1046C000280600002F07000000060000FC0500007F
:1046D000990B0000920500007F0600003B070000D8
:1046E0005E0500004E0C0000B4040000C10800008C
:1046F0004A0600000B04000022080000DA04000053
:104700006D070000CC090000A6020000310800007F
:10471000C90200003507000058070000E704000048
:104720006E07000073080000260900005B0B000004
:10473000D1060000830800002F0800009A0900003D
:10474000F1070000970700008F0500006C080000CB
:1047500097080000970700007D080000000900008E
:104760000009000000090000000900000009000025
:104770000009000001090000000900000209000012
:1047800003090000010900000209000003090000FC
:1047900018070000EF060000B104000084050000C7
:1047A00020070000000000000E050000BA05000010
:1047B0001E0700004509000067000000AF0600006A
:1047C00043070000FA080000870B00006F03000099
:1047D00063090000910A0000C30B0000DD0E000019
:1047E000BB050000F30A0000D60B0000490D0000D5
:1047F000FF0F00008B070000360B0000180C0000B4
:10480000F50C0000E40F00005D070000E309000064
:10481000350A0000040B0000710D0000C606000000
:104820002B080000BD0800008B080000630B00008F
:10483000D50500009A0600000D0700002A070000B9
:1048400043090000F305000033060000E506000000
:10485000E4060000A008000055060000B6060000AF
:104860008A070000B60700008C080000ED07000072
:10487000FF07000007090000160900002E090000CC
:104880005009000062090000530A0000310A0000CC
:104890003A0900004A0A0000680A0000410B0000C3
:1048A000F50A0000E6080000480A00002E0A000091
:1048B000340B0000EA0A000012080000A8090000FA
:1048C000780900004A0A0000730A0000FD06000093
:1048D000BA080000860800009D090000230A0000B5
:1048E00090060000490800004F080000420900003F
:1048F000450A000076060000100800001D080000B0
:1049000020090000850A0000030700006708000076
:104910005D0800004A090000EB0A0000A90700003A
:10492000BC0800008F08000072090000F50A0000B2
:104930004708000017090000D208000071090000B4
:10494000DF0A0000A908000044090000EE0800008A
:1049500016090000570A0000D7080000510900009E
:10496000FD080000EA080000BB090000D8080000AC
:1049700038090000F7080000A60800000D09000033
:10498000C20800002E090000F00800008C0800009A
:104990006D0800009A080000050900001D090000CC
:1049A000BE0800002408000098080000FD08000070
:1049B00039090000FD0800000D080000B2080000E1
:1049C000010900005E090000370900001708000017
:1049D000D0080000F408000065090000710900001B
:1049E0001E080000FE080000020900007C0900000B
:1049F000C1090000540800003E090000250900001C
:104A00009A090000DE090000620800003809000071
:104A1000F208000060090000BB0900005B0800000C
:104A200037090000EA08000027090000800900009B
:104A30006008000014090000CE080000FF08000014
:104A40003F0900007108000001090000EB080000A8
:104A5000110900000809000085080000EA080000AC
:104A6000040900002E09000009090000AE0800003A
:104A7000F5080000030900001A090000FA08000008
:104A8000C908000001090000240900000D09000008
:104A9000E0080000D7080000FF0800002D09000012
:104AA0001C090000DD080000EB080000F20800000F
:104AB0002809000011090000DB080000FF080000C1
:104AC000010900004209000029090000F408000063
:104AD000190900000B090000550900003709000002
:104AE000EE08000007090000F50800003809000082
:104AF00015090000CD080000DE080000CB0800000A
:104B00002409000009090000B1080000D1080000D4
:104B1000BB0800001209000013090000CB080000C8
:104B2000DC080000D70800001D0900001D09000076
:104B3000DA080000ED080000EC0800003A09000067
:104B40002F090000FA080000FD0800000A09000013
:104B50003909000035090000F4080000F9080000D8
:104B6000F90800001B09000030090000F3080000EC
:104B7000F4080000EF0800000D09000027090000FC
:104B8000FE080000FE080000D6080000E108000052
:104B90000C090000E5080000FF080000D208000032
:104BA000DD0800000A090000E8080000090900000B
:104BB000E0080000D908000002090000DE0800003B
:104BC00009090000E0080000E708000009090000EA
:104BD000020900002D090000090900000209000077
:104BE000140900000C09000036090000200900002B
:104BF0001D090000220900001E09000037090000FD
:104C0000240900001C0900001A0900000E09000018
:104C1000150900001C09000012090000030900002A
:104C200002090000E6080000F4080000E2080000A5
:104C3000E808000001090000DB080000E6080000A9
:104C4000D7080000FB07000080080000C108000032
:104C5000EF080000D5080000C7070000C6080000E4
:104C6000EF08000027090000730900000D0800008C
:104C70000D0900003D09000076090000BA09000096
:104C8000AD080000580900008F090000A9090000C4
:104C9000F3090000C6080000430900006B0900008A
:104CA000A5090000D3090000F40800001D09000058
:104CB00030090000630900009D090000C9080000D8
:104CC000D7080000D9080000FF0800003A090000DA
:104CD000BF080000AF080000A4080000A9080000F9
:104CE000E408000094080000970800009208000003
:104CF00092080000BA080000B4080000BE080000D6
:104D0000C5080000C9080000C1080000EE08000046
:104D1000030900001909000000090000DD08000077
:104D20002A090000430900004B0900003A0900006D
:104D3000E00800002C090000550900005F09000090
:104D400049090000D70800002609000055090000A5
:104D5000680900006E090000CB0800000809000087
:104D600031090000500900006E090000B808000079
:104D7000E0080000FF0800002009000066090000AC
:104D8000B0080000DB080000EE0800000809000081
:104D900050090000AF080000DE080000E408000031
:104DA000FC08000042090000B6080000D10800001D
:104DB000DB080000E90800002B090000C80800001B
:104DC000ED080000EC080000F808000027090000CA
:104DD000D7080000FF080000FD08000001090000DE
:104DE00011090000E70800000C0900000709000095
:104DF0000A09000006090000F50800000609000085
:104E00000809000007090000F3080000FB08000083
:104E1000FA080000FF0800000A090000F508000079
:104E20000C090000FC080000F7080000FB08000067
:104E3000E608000014090000FC080000FC0800005F
:104E4000F1080000D3080000190900000109000062
:104E500002090000FB080000CF0800001E09000046
:104E60000A090000110900000D090000D90800001E
:104E70002409000016090000220900002209000090
:104E8000E40800002F090000250900003009000097
:104E900035090000EE080000260900001C0900008A
:104EA000C1070000C50700004B090000840700008F
:104EB000E40C0000E5030000DD0700004F070000E0
:104EC0004A0A0000C00E000059060000E209000076
:104ED00008080000A00A0000D90A000083050000AD
:104EE0000D070000080700007F0A0000AB09000062
:104EF0007109000080080000500A0000530B0000F8
:104F000021080000A60900002A060000440900004C
:104F1000FF07000023070000EA0A0000C5070000A1
:104F20009D0B00009F08000028090000660B000090
:104F30004A08000070090000BE050000DF070000FD
:104F4000D2090000A60900001A0900009A07000013
:104F5000810A0000160B0000640B00004D070000E2
:104F600013070000C5080000DB0800005D0A000010
:104F7000D30500009E080000420A0000C00A00009D
:104F8000700B0000080700007F09000021090000E5
:104F90001F0900007108000054060000E608000028
:104FA0001F090000FD09000021090000A5090000FB
:104FB0002C0A0000DF090000C908000049070000B2
:104FC00044090000020800008208000007080000F1
:104FD0008B080000110B0000E2080000FC09000033
:104FE00067090000F6080000D00900007107000002
:104FF00002080000F3070000B30800009709000052
:105000002A09000063090000A5090000F709000053
:105010007B09000080090000B70700003A08000083
:105020007F08000074080000EF0900003608000047
:10503000AB090000A90900009C090000840A0000D7
:10504000350800009D080000240800006A080000E0
:105050004F09000069080000EF0800004709000040
:10506000B70900001A0A0000990900007F08000033
:10507000800800006E08000090080000EB080000A7
:1050800000080000170900006209000087090000FD
:10509000410A0000D608000025090000CC080000E5
:1050A0008D08000005090000250800007F080000A9
:1050B000F6080000EF080000AE09000087090000B4
:1050C000260900007C090000D30800000E0900003A
:1050D000F00800001A080000DB0800007B08000050
:1050E0001A090000B1090000F70800009709000044
:1050F00022090000350900004A0500000C080000E4
:1051000090080000450900001F0D0000D6050000B2
:1051100059080000130A0000070A00004E0E0000A4
:105120007807000003090000020A0000050A0000D9
:10513000EC0C000013080000400900002B0A0000DE
:10514000E8090000D90C0000F6070000BF080000C5
:105150007109000037090000980B000016080000D4
:1051600077080000D60800003F080000A40A0000ED
:10517000700700000E08000066080000B507000078
:10518000E40900009A070000A3080000AB08000033
:10519000F607000074090000880700008A08000074
:1051A0005B0800002B080000D50800002008000064
:1051B0001809000000090000420900000D09000064
:1051C000EA080000770900003C090000BA09000065
:1051D0009808000031090000BB09000080090000A8
:1051E000610A00008E08000091090000D609000045
:1051F0009D090000610A00000A080000560900002D
:105200007A090000640900006F0A0000D30700005B
:10521000F70800000709000031090000260A000015
:10522000BC0700009A080000BD080000F10800005B
:10523000ED090000AF0700001E080000570800003D
:105240009A080000AE090000CA0700002F080000FD
:105250007F080000C2080000190A000010080000C2
:1052600057080000A0080000C3080000460A00001C
:1052700039080000CE080000C40800000209000040
:105280008C0A0000A508000048090000EC08000096
:10529000250900007E0A0000B4080000750900001E
:1052A000ED080000130900004B0A0000F40800009C
:1052B000C30900003809000020090000BB090000F4
:1052C000DB08000098090000DC080000DB08000093
:1052D000F8080000870800001F0900009E08000071
:1052E000EA08000093080000BF080000160900004B
:1052F000B7080000F00800001E0800009908000030
:10530000AC080000AC080000F7080000FD07000032
:10531000B1080000DB080000130900006909000063
:1053200058080000ED080000010900002F090000E6
:105330009C09000073080000EA0800002209000030
:1053400050090000050A0000BF080000FE08000028
:10535000420900000E090000690A0000BF080000B1
:10536000580900008D090000AF070000E1090000A6
:10537000FA0700008B090000090800001609000068
:10538000BE080000680A0000D00700001C0A0000E8
:10539000EC060000850A0000CB070000FD080000B5
:1053A000FF07000044080000B80900005D08000085
:1053B000EA090000FF070000F50900002E080000C0
:1053C000FB090000130800009B090000F90700001A
:1053D000A70900005F080000370A000086080000E7
:1053E000E7090000EC08000044090000C5090000BE
:1053F0006C080000320A000065070000EF09000099
:10540000DF070000810A00004D080000D6090000F7
:10541000F3070000FB090000D80800007509000030
:105420005D0800002D0800006A09000072080000F5
:105430000E0A0000B60700008A0900002D080000CF
:105440004F0A00003E080000930900008B0700008F
:10545000B809000067080000A609000098080000CD
:10546000C2080000A009000084080000420A0000F1
:1054700007080000DB090000F6070000D40900005F
:10548000CF0800003A090000B50800001909000023
:105490000909000083090000F70800001209000054
:1054A000CC080000F90800001109000026090000DE
:1054B0004506000023060000FA0600003D0A000031
:1054C0009E0F00008D090000050A0000DE060000A6
:1054D000230B0000DA040000F4090000440A000075
:1054E000BA0900000508000033070000D1080000D9
:1054F000960900001F0E0000B30700000C09000011
:105500004D0700001E0800000B0600009A0900006D
:10551000CE0A0000170A0000030B0000C6060000B8
:1055200068080000C0080000DF0B000062070000F0
:1055300063090000C8070000F807000044080000E5
:10554000370900006A0A00003D0A0000E40B000071
:105550008D0600004A0800004D0800000D0A0000FA
:105560002E080000BB09000081080000850800002B
:10557000A90900006A0800004E0A0000080A00009D
:10558000600B00008C0600000E0800009807000069
:105590000A09000066090000E10900003A0900005C
:1055A00022090000F70900007E070000AF08000094
:1055B000480A0000F70B00006308000078080000AC
:1055C000F9050000CE070000AE0A0000320B000013
:1055D000CA0B00004D090000C30800005B05000075
:1055E000150800008A090000DF0A0000DF0900003A
:1055F0000E09000021070000EB070000E909000088
:105600006B0900002B0B0000EC090000FB080000F8
:105610008505000050070000FE070000420A000058
:105620009E0B000071090000600800007A0700006E
:105630001609000030080000B00A00000B0A000044
:105640000F090000FD06000013070000A10700007D
:10565000FC090000F50B0000F40900004A090000F5
:10566000D107000027080000910700005A0A000037
:105670007A090000F9090000DF080000B9070000FE
:1056800005080000380900007E0B0000AC0900008E
:105690000A0A0000150800002C070000110700008E
:1056A00066090000C7090000C40A0000B209000032
:1056B000CB070000ED070000C4080000A80A0000A6
:1056C000FC080000150A0000F6070000A207000011
:1056D000F907000081080000AB090000650A00001E
:1056E000360A000090080000B60800009F0800007D
:1056F0002C090000720800009309000063080000F4
:105700000509000004090000D20800004B09000050
:10571000A2090000E809000071080000F708000075
:1057200072080000D5080000C90800002C0900001C
:10573000F10800007309000059090000CE080000BC
:105740000009000046090000660900009F080000EB
:105750000709000064080000E608000000000000DF
:1057600008000000100000001800000020000000E9
:105770002800000030000000380000004000000059
:1057800048000000500000005800000060000000C9
:105790006800000070000000780000008000000039
:1057A000880000009000000098000000A0000000A9
:1057B000A8000000B0000000B8000000C000000019
:1057C000C8000000D0000000D8000000E000000089
:1057D000E8000000F0000000F800000000010000F8
:1057E0000801000010010000180100002001000065
:1057F00028010000300100003801000040010000D5
:105800004801000050010000580100006001000044
:1058100068010000700100007801000080010000B4
:10582000880100009001000098010000A001000024
:10583000A8010000B0010000B8010000C001000094
:10584000C8010000D0010000D8010000E001000004
:10585000E8010000F0010000F80100000002000073
:1058600008020000100200001802000020020000E0
:105870002802000030020000380200004002000050
:1058800048020000500200005802000060020000C0
:105890006802000070020000780200008002000030
:1058A000880200009002000098020000A0020000A0
:1058B000A8020000B0020000B8020000C002000010
:1058C000C8020000D0020000D8020000E002000080
:1058D000E8020000F0020000F802000000030000EF
:1058E000080300001003000018030000200300005C
:1058F00028030000300300003803000040030000CC
:10590000480300005003000058030000600300003B
:1059100068030000700300007803000080030000AB
:10592000880300009003000098030000A00300001B
:10593000A8030000B0030000B8030000C00300008B
:10594000C8030000D0030000D8030000E0030000FB
:10595000E8030000F0030000F8030000000400006A
:1059600008040000100400001804000020040000D7
:105970002804000030040000380400004004000047
:1059800048040000500400005804000060040000B7
:105990006804000070040000780400008004000027
:1059A000880400009004000098040000A004000097
:1059B000A8040000B0040000B8040000C004000007
:1059C000C8040000D0040000D8040000E004000077
:1059D000E8040000F0040000F804000000050000E6
:1059E0000805000010050000180500002005000053
:1059F00028050000300500003805000040050000C3
:105A00004805000050050000580500006005000032
:105A100068050000700500007805000080050000A2
:105A2000880500009005000098050000A005000012
:105A3000A8050000B0050000B8050000C005000082
:105A4000C8050000D0050000D8050000E0050000F2
:105A5000E8050000F0050000F80500000006000061
:105A600008060000100600001806000020060000CE
:105A7000280600003006000038060000400600003E
:105A800048060000500600005806000060060000AE
:105A9000680600007006000078060000800600001E
:105AA000880600009006000098060000A00600008E
:105AB000A8060000B0060000B8060000C0060000FE
:105AC000C8060000D0060000D8060000E00600006E
