:020000040800F2
:1000000000200020A5280008491F00084B1F0008F9
:1000100000000000000000000000000000000000E0
:100020000000000000000000000000004D1F00085C
:1000300000000000000000004F1F0008511F0008D2
:10004000F5280008F5280008F5280008F52800081C
:10005000F5280008F5280008F5280008F52800080C
:10006000F5280008F5280008F5280008F5280008FC
:10007000F5280008F5280008F5280008F5280008EC
:10008000F5280008F528000800000000F528000801
:10009000F5280008F5280008F5280008F5280008CC
:1000A000F5280008F5280008F5280008F5280008BC
:1000B000F528000800000000F528000800000000F6
:1000C00010B5064C2378002B07D1054B002B02D02E
:1000D000044800E000BF0123237010BD2000002071
:1000E0000000000050290008044B10B5002B03D07D
:1000F0000349044800E000BF10BDC04600000000F6
:100100002400002050290008002243088B4274D3A9
:1001100003098B425FD3030A8B4244D3030B8B4208
:1001200028D3030C8B420DD3FF22090212BA030C11
:100130008B4202D31212090265D0030B8B4219D3F2
:1001400000E0090AC30B8B4201D3CB03C01A524112
:10015000830B8B4201D38B03C01A5241430B8B425A
:1001600001D34B03C01A5241030B8B4201D30B0343
:10017000C01A5241C30A8B4201D3CB02C01A52416A
:10018000830A8B4201D38B02C01A5241430A8B422D
:1001900001D34B02C01A5241030A8B4201D30B0216
:1001A000C01A5241CDD2C3098B4201D3CB01C01A30
:1001B000524183098B4201D38B01C01A524143093A
:1001C0008B4201D34B01C01A524103098B4201D328
:1001D0000B01C01A5241C3088B4201D3CB00C01A95
:1001E000524183088B4201D38B00C01A524143080D
:1001F0008B4201D34B00C01A5241411A00D2014632
:10020000524110467047FFE701B5002000F0F0F8BA
:1002100002BDC0460029F7D076E7704703460B437E
:100220007FD4002243088B4274D303098B425FD3EF
:10023000030A8B4244D3030B8B4228D3030C8B421B
:100240000DD3FF22090212BA030C8B4202D3121201
:10025000090265D0030B8B4219D300E0090AC30BD6
:100260008B4201D3CB03C01A5241830B8B4201D383
:100270008B03C01A5241430B8B4201D34B03C01A6C
:100280005241030B8B4201D30B03C01A5241C30AE4
:100290008B4201D3CB02C01A5241830A8B4201D355
:1002A0008B02C01A5241430A8B4201D34B02C01A3F
:1002B0005241030A8B4201D30B02C01A5241CDD2E4
:1002C000C3098B4201D3CB01C01A524183098B422F
:1002D00001D38B01C01A524143098B4201D34B0118
:1002E000C01A524103098B4201D30B01C01A52417B
:1002F000C3088B4201D3CB00C01A524183088B4202
:1003000001D38B00C01A524143088B4201D34B00EA
:10031000C01A5241411A00D201465241104670475C
:100320005DE0CA0F00D04942031000D34042534061
:1003300000229C4603098B422DD3030A8B4212D321
:10034000FC22890112BA030A8B420CD38901921153
:100350008B4208D3890192118B4204D389013AD090
:10036000921100E08909C3098B4201D3CB01C01A65
:10037000524183098B4201D38B01C01A5241430978
:100380008B4201D34B01C01A524103098B4201D366
:100390000B01C01A5241C3088B4201D3CB00C01AD3
:1003A000524183088B4201D38B00C01A5241D9D2EB
:1003B00043088B4201D34B00C01A5241411A00D26C
:1003C0000146634652415B10104601D34042002B68
:1003D00000D54942704763465B1000D3404201B5E7
:1003E000002000F005F802BD0029F8D016E770479C
:1003F0007047C0468446100062468C46190063462A
:1004000000E0C0461FB500F0ADFC002801D400217B
:10041000C8421FBD10B500F0F1FB4042013010BDD5
:1004200010B500F09FFC002801DB002010BD01206A
:1004300010BDC04610B500F095FC002801DD00207D
:1004400010BD012010BDC04610B500F01BFC0028F7
:1004500001DC002010BD012010BDC04610B500F029
:1004600011FC002801DA002010BD012010BDC0469B
:10047000F0B54F464646D646C0B582B000900191D1
:100480000E034C00CD0F710A009E5F00760F0E43E5
:10049000009900920193C900894619037B0D984683
:1004A000019B490ADB0F9C46009B009A5B0F0B43A4
:1004B0004146640DD200611A654500D1A6E00029CD
:1004C00072DD4746002F00D1DDE0CC4FBC4200D1A9
:1004D0009AE10127382917DC80273F043B431F2975
:1004E00000DDDDE12027781A1F008740BA4617009B
:1004F000CF40844638005746074360468240CB4091
:10050000501E8241F61A17434B46DF1BB945804106
:100510004042361A330200D4FFE07602760A002EFB
:1005200000D13CE1300001F0A9FB0300083B202191
:100530003800CA1AD0409E4002009F4032439C427D
:1005400000DDA6E1181B0130091A3E008F40C640AD
:100550007B1E9F4113008B4037431F43C2403B002B
:1005600016000024134300D1DFE17B0700D132E302
:100570000F233A003B40042B04D03A1DBA42BF413E
:100580007F42F619330200D423E39C4B01349C4292
:1005900000D1B4E09A4B64051E40640D7707D20881
:1005A00076021743360BACE0002900D17EE04146CD
:1005B000091B002C00D060E134004846044300D100
:1005C000C9E14C1E012900D12EE28C4DA94200D177
:1005D00024E20127382C11DC21001F2900DD0BE269
:1005E000202437004846641AA740C84007434846BD
:1005F000A040CE40441EA0419B1B0743D71BBA42DC
:1006000092415242654644469E1A83E7002900DC27
:100610009CE04746002F67D11F00174300D1E4E05C
:10062000481E012900D19BE1744FB94200D1EBE093
:1006300001270100382811DC1F2900DDC7E1202730
:10064000781A1F00844687401000C8400743604660
:100650008240CB40501E8241F61817434F444F450D
:10066000804140423618330257D5644B01349C42D6
:1006700045D00121624B7A081E4039400A43F707F2
:100680001743760871E71F00174300D1ADE04F1EF6
:10069000BC46012900D182E1584FB94200D190E116
:1006A00061460127382900DD2EE718E7554F611C08
:1006B000394200D0D0E0310048461F0001431743C3
:1006C000002C00D03DE1002900D1BCE1002F00D07A
:1006D000BFE14B460021D80877070743F00806031F
:1006E0004C05360B640D0CE0444FBC4200D18BE04E
:1006F00001273829B2DC80273F043B439CE70026D2
:10070000002724053443ED072C433800210002B0B4
:10071000E0BCBA46B146A846F0BD7B0704D00F2323
:100720003B40042B00D028E7F808344B77070743F9
:10073000F0089C4200D04AE23B00034359D0802697
:100740003603064336032D4C360BDAE7002961D019
:100750004146091B002C00D1B9E0284CA04500D12E
:10076000A5E10127382913DC8024240426431F290E
:1007700000DDC8E1202437004846641AA740C8407D
:1007800007434846A040CE40441EA0419B19074362
:10079000BF189742924152424446D61863E7380048
:1007A00001F06CFA030018331F2B00DCBFE63A009F
:1007B000083882409C4200DD83E01B1B581C1F2828
:1007C00000DCB4E117001F3BDF40202805D04023A8
:1007D0001B1A9A40531E9A4117430024002F0AD037
:1007E0007B0700D0C4E626009EE74B460C00D808E5
:1007F0009BE70027014C002683E7C046FF07000067
:10080000FFFF7FFFFE0700004B467707D80807432E
:10081000F00891E7CD4F611C39426BD13100484659
:100820000143002C00D04BE11F001743002900D1E9
:1008300081E1002F00D14CE74A444A458041F61837
:1008400040423618330200D5B0E1170091463743D5
:1008500000D03EE7002654E74946891A8846C1453C
:10086000BF41F11A7F42C91B0F0261D447460F43B3
:1008700000D1BDE00E00474651E6B54CA04500D181
:1008800000E10127382900DDB8E68024240426434E
:10089000A3E6B04EE41A16407B0700D03FE743E7DB
:1008A0000F001800203FF8408446202903D040273D
:1008B000791A8B401A43531E9A41634617001F430F
:1008C00022E6A448E11A10404707C00807E73400B1
:1008D0004846044300D1FAE04C1E012900D1D7E07C
:1008E0009B4FB94200D1E2E00127382C00DD4FE7F1
:1008F00021003CE7964CA14200D1DDE04A444A4544
:100900008041F31840421818C70752081743460899
:10091000520705D00F220C003A40042A00D02CE6E2
:100920007607FF0837430009D9E600270026E8E6E6
:100930004946571ABA4292419E1B52426546B61A20
:10094000EDE5002900D0C6E0002F67D18026002504
:100950007F4C3603D5E665460C001E00D008E4E661
:100960004A444A458041F3184042181811000302D6
:1009700000D496E0774B49081840C3070B4344085E
:10098000490700D129E10F221A40042A00D1EAE0E8
:100990001F1D9F42B641764236190224C4E64946DD
:1009A0008F1AB9458041F61A4042361A330206D4EE
:1009B0007307FF0801211F43F00890E665460124F4
:1009C000ABE54B467707D8080743F008B4E60F00BD
:1009D0001800203FF8408446202903D04027791A88
:1009E0008B401A43531E9A41634617001F4335E656
:1009F00000250024002684E60C003500203CE5405C
:100A0000202905D04024611A8E4049463143894649
:100A10004846411E884107002F43EFE5D2085F0793
:100A200065461743D80887E6171ABA4292419E1BBB
:100A30005242B61A3302C1D47307FF08654601213A
:100A40001F43F0084BE6002F7BD065461E00914601
:100A50003FE6811A8846C145A441F11A6442091B48
:100A600080242404214277D0101A82429241070048
:100A70009E1B5242B61A374300D0A0E065460024C0
:100A800000263EE65F07D20865461743D80853E6BE
:100A9000811891429241F01852428018030200D509
:100AA00068E74707C9080F43C008012117E6D208C5
:100AB0005F071743D8083FE60C000026002720E612
:100AC000002956D15F07D2081743D80834E60C0036
:100AD0001E00D00829E6C10870070143F008002F66
:100AE00062D080242403204207D0DE08264204D1AD
:100AF00065463000D1085B0719434F0FC900C9088C
:100B00007F070F4318E60C003000203CE04084468D
:100B1000202905D04024611A8E4049463143894638
:100B20004846411E8841614607000F4330E62021B8
:100B30000027091A0EE51E00002F00D022E5002430
:100B400058E7002500240026DBE5C046FE0700002C
:100B5000FF070000FFFF7FFF47460F4300D147E735
:100B60000E00C146B5E5DF086407022127430009EE
:100B7000B5E51900C008770707431143F0080029BD
:100B800000D1D9E580210903084207D0DC080C42D6
:100B900004D1D2085B071A43170020007B0FFF0027
:100BA000FF085B071F43C7E50F00C5E5124BD208DE
:100BB00033405F075B02012417431E0BA1E5264269
:100BC00012D00D4B6546020001241E40E6E42100D0
:100BD00085E51700A8E53A00D4E4DB0864071C4368
:100BE0002700022100097AE5C00877070743654618
:100BF0000021F00873E5C046FFFF7FFFF0B55746C0
:100C0000DE464E464546E0B50D000400E80F83463B
:100C10000903D80F090B824619488C461F03690047
:100C20005E00490D3F0B760D814218D086420FD0F1
:100C30000120B1420DD1BC450BD1944209D1D3451D
:100C40001CD0002905D160462043431E984100E096
:100C50000120F0BCBB46B246A946A046F0BD01202B
:100C60008E42F6D1614639430F0017432743F0D136
:100C70005B465246981A431E9841EAE70020E8E78F
:100C8000FF070000F0B557464E464546DE46E0B544
:100C90000D000E034900490D8A46DF0FE90FBC46DF
:100CA00083B02F4F040080460191580019039146EC
:100CB000360B090B400DBA451DD0B8420DD0574632
:100CC000002F2AD13443002824D10A4336D0002CE7
:100CD00041D163465800013815E0114338D15346DD
:100CE000002B01D12643F4D0019B634507D1019B22
:100CF0005800013807E026432AD1504521D0012071
:100D0000019B5F42384303B0F0BCBB46B246A946E4
:100D1000A046F0BD002CDCD0E6E70028EFD0019B18
:100D20006345ECD18245EADCE1DB8E42E7D8DED1D7
:100D3000C845E4D80020C845E5D2D8E7002CE2D069
:100D4000DDE7114304D1019B6345D8D10020DAE7E8
:100D500002204042D7E7019B6345E6D0CFE7C0467B
:100D6000FF070000F0B557464E464546DE46E0B563
:100D70000D000E034900490D8A46DF0FE90FBC46FE
:100D800083B02E4F0400804601915800190391460C
:100D9000360B090B400DBA451ED0B8420DD0574650
:100DA000002F27D13443002833D10A4334D0002CFC
:100DB00040D163465800013815E0114312D1534623
:100DC000002B01D12643F4D0019B63451DD00120A7
:100DD000019B5F42384306E0264303D15045F6D1DC
:100DE00011431CD0022003B0F0BCBB46B246A9465A
:100DF000A046F0BD0028EAD0019B6345E7D18245BB
:100E0000E5DC02DB8E42E2D80ED0019B58000138AF
:100E1000E9E7002CCDD0D7E7002CE4D0D7E7019B41
:100E200000206345DFD0D2E7C845D0D80020C845B0
:100E3000D9D2EAE7019B6345E4D0C8E7FF07000089
:100E4000F0B557464E46DE464546E0B51F000B035B
:100E50001B0B16009A46CA0F4B000400914685B042
:100E60005B0D00D1CFE1CD4A934255D05146420FA0
:100E7000C9000A43802109041143C2009046C84AB0
:100E80008A4693469B440023002502933C037B0043
:100E9000FA0F0196240B5B0D009200D188E1BF4A46
:100EA000934200D192E0BE4A944663449B440A2D8B
:100EB00042DCE400730F23438024494624041C438E
:100EC000F3000193009B00205940CBB20393022D05
:100ED00000DC94E00123AB401D00A6232A00DB00C8
:100EE0001A401D4200D029E290239B001D4200D1F0
:100EF0004DE20023802499462403A84B10004A4663
:100F00001B052343D2071343190005B0F0BCBB46B1
:100F1000B246A946A046F0BD52460243904600D0D4
:100F2000ACE19B460223924608250293AEE7009B64
:100F3000A2469946019B9846029B022B00D1CAE12A
:100F4000032B00D192E1012B10D1002300240022B9
:100F5000D4E701227B083A4013435246D207134399
:100F6000984653465B089A46039B99465B46581C35
:100F70008023DB005B44002B00DCB1E142465207DA
:100F80000BD00F2241460A40042A06D04246111DCA
:100F9000414592418846524292445246D20106D57A
:100FA0005246804B1A4080239246DB00C3187E4A8B
:100FB000934200DD8FE14246D108524652070A4370
:100FC00051465B054C02240B5B0D97E7734B2643A0
:100FD0009C46E344002E00D16FE1032349461D43A4
:100FE000009B5940CBB203930A2D00DD33E101236E
:100FF000AB401D000323029388222A4297D1424628
:1010000043461204120C160001981D0C030C000438
:10101000000C4643B4461E006E43009616000700BF
:101020005E436146B0466F430E0CB8444644B74237
:1010300005D9802149028846009F474400976146B0
:101040000904090C370C36048C46310061440191C7
:101050001100260C2404240C61438C4621006943B2
:1010600089466146090C884672434A4442447543A6
:10107000914503D98021490288464544110C884690
:1010800061460904090C8C4612046244B9180291A5
:101090005146090C8C4651460F043F0C3900414320
:1010A00045448846614641438A4641466046090CAC
:1010B000894658437B4353444B449A4503D9802186
:1010C000490289464844190C894641460904090CDD
:1010D0008846390061431B044344884661464C43BB
:1010E00071438C46414677430E0C3F19F61948442C
:1010F000B44203D9802149028946CC440299009F19
:10110000894631044F4489464146974292410C0436
:10111000240C4C44FF1852426419A1189F429B4171
:10112000884682465B42994690459241AC42A44132
:10113000C244D14452426442144399459B41824582
:1011400092415B42524213434A46360CA419E318BB
:1011500063445B02D20D1A43019992467A020A4314
:10116000501E8241FF0D17434A4652021743B846AC
:10117000DB0100D5EDE60D4B039A5B449146002B55
:1011800000DCACE03A00520700D110E70F225846CD
:101190003A40042A00D0F9E609E7C046FF070000FC
:1011A00001FCFFFFFFFFFFFEFE070000FF03000042
:1011B000220032436FD0002C00D1C2E0200000F0AA
:1011C0005DFD020003000B3A1D20821A3000190059
:1011D000D04008398C400200224334008C405946EC
:1011E000CB1A86498B469B440A2D00DDA4E649466E
:1011F000009B01945940CBB2140000200393022DB0
:1012000000DD67E6FBE65346034398463CD0534671
:10121000002B00D1A3E0504600F030FD0B235B42D1
:101220009C460200844411005046083988401D2322
:10123000804660461B1A2000D84003004046034306
:101240009A4623008B4098466C4B00259B1A9B4680
:10125000002302931AE60F2D00D0C9E080235246E6
:101260001B031A4202D01C4200D192E08024534654
:1012700024031C4324034246240B3EE69B460323DF
:1012800080460C25029301E600239A469B460133D3
:1012900004250293FAE501210D430A2D00DD4BE6FA
:1012A000494600984140C9B20391022D00DC96E006
:1012B00000230024012001930CE649460223009AF2
:1012C0002B435140CAB203920A2B00DD34E6002DB5
:1012D00057D1039B994600240022494B0EE65846FD
:1012E0000121C91A382900DD2FE61F2956DD1F22EA
:1012F00054465242D31ADC40202907D0414B424683
:101300009C465346604483401A4390464246072118
:10131000531E9A410B00224313400024114209D06E
:101320000F231340042B5DD0111D91429B410A00F5
:101330005B425B07D2081A430023DFE5039B994613
:10134000FAE5019800F09AFC020003001532203300
:101350001C2A00DC38E7019A083882403FE700F099
:101360008DFC15239C4684440200634620321C2BCE
:1013700000DC58E7002398462300083883409A464B
:1013800062E71D000023002402200193A2E50290E1
:1013900032E61C43009B019A9946AEE51A4B524631
:1013A000C31840469A40C840024340469840030054
:1013B000581E834154461A43CC40530709D00F238B
:1013C0001340042B05D0131D934292415242A4189E
:1013D0001A00230208D50123002400228EE5894645
:1013E00000248BE50023A5E763076402240BA1E733
:1013F000009BA2469946019B984637E70DFCFFFFEC
:10140000FF0700003E0400001E040000F0B5574630
:101410004E464546DE46E0B583B0009001910C0390
:101420004D00CE0F610A009C5F00640F0C430099D1
:1014300000920193C80019037B0D9946019BCC4F84
:10144000DB0F9C464B0A00998046490F1943009BCD
:101450008B46DA0092466D0DB94500D1BFE00123FD
:10146000614659404B468C46EB1A8E4275D0002B94
:1014700000DCA3E24946002900D1CEE0BD4200D104
:1014800000E20127382B19DC802759463F043943F5
:101490008B461F2B00DDFAE12027F91A8C465946AE
:1014A0006746B9400F001100D9400F4361468A409A
:1014B000511E8A415946D9401743641AC71BB84286
:1014C00080414042241A230200D440E16402640AAD
:1014D000002C00D154E1200000F0D0FB0300083BB9
:1014E00020213800CA1AD0409C4002009F4022436D
:1014F0009D4200DDA6E1581B0130091A3C008F40D7
:10150000C4407B1E9F4113008B4027431F43C240B2
:101510003B0014000025134300D1F7E17B0700D105
:1015200077E30F2338003B40042B04D0381DB8422A
:10153000BF417F42E419230200D468E38C4B01359C
:101540009D4200D1F4E08B4B6D051C406D0D67078B
:10155000C00864020743240BECE0002B00DC29E305
:101560004946002900D0D6E05946114300D12EE16A
:10157000591E012B00D1E6E1BB4200D182E10127D7
:101580000B00382914DC1F2B00DD3CE22027F91A60
:101590008C4659466746B9400F001100D9400F43A9
:1015A00061468A40511E8A415946D9401743641802
:1015B0003F188742804140422418230200D4C6E0ED
:1015C0006B4B01359D4200D1B2E00121694B7A0895
:1015D0001C4039400A43E707174364089EE7664BFF
:1015E00011438A46EB18002928D066452CD0002BE1
:1015F0005BD0002D00D12CE15B4666465F07D20828
:101600001743DD083B002B4300D1E2E08024240394
:101610002C432403564D240B8CE05946114300D132
:10162000D5E0591E012B00D1B9E1BB4200D1B1E197
:1016300001270B00382900DD40E72AE76146012732
:1016400079408C466645D2D1002B00D1C5E0002DF3
:1016500000D055E14B462500054300D112E2591E4A
:101660008C46012B00D149E2414DAB4200D18FE2C3
:101670000127382911DC63461F2B00DD5BE2614640
:10168000202327005B1A050098409F40CD40431E51
:101690009841CC402F430743A344BF18974292413F
:1016A00052425A4414004D4687E7344F6B1C3B426C
:1016B00000D0B6E05946230011430F000343002D2C
:1016C00000D026E1002B00D1C0E1002900D1A1E02B
:1016D000831A98465B464045AD41E31A6D425B1B59
:1016E00080252D042B4200D14BE15B46101A82422B
:1016F00092411C1B0700012663465242A41A27434D
:101700001E40002F00D142E12C4200D16DE2194B66
:1017100001251C401BE7BD4200D13BE10127382BCE
:1017200000DD45E7802759463F0439438B462AE7C9
:10173000002400272D052543F607354338002900EE
:1017400003B0F0BCBB46B246A946A046F0BD7B073D
:1017500004D00F233B40042B00D0E7E62B00F80811
:10176000034A67070743E508934200D14AE7A5E02B
:10177000FF070000FFFF7FFF01F8FFFFFE070000EB
:10178000380000F07BFA030018331F2B00DCA7E6BB
:101790003A00083882409D4200DD8AE05B1B581CFD
:1017A0001F2800DCD8E117001F3BDF40202805D0B0
:1017B00040231B1A9A40531E9A4117430025002FBD
:1017C00000D1E5E07B0700D0ABE62C00C6E7C008FF
:1017D000C6E700270024D14DACE7D14F6B1C3B423C
:1017E00071D123000343002D00D04EE15746002B5A
:1017F00000D1B5E1002F0DD08318834280415C44B5
:1018000040422418220200D5C8E11F009846274311
:1018100000D1BCE043466707DB081F43E50800230F
:101820004CE0831A98465B464045BF41E31A7F422D
:10183000DB1B1F027CD447461F4300D1A6E01C00DF
:10184000474645E6B74CED1A14407B0700D080E7C9
:1018500084E74B462500054366D05F1E012B00D16F
:10186000FCE0AE4DAB4200D15EE16646382F00DCB5
:10187000B4E00120171ABA4292415B4652424D46EB
:101880009C1A20E66707C0080743E508BAE61F0070
:101890005946203FF9400F00202B05D04021CB1A9C
:1018A000594699400A43924653465A1E93411F4354
:1018B00004E6EB1A9B4D15406F07ED082C035D0500
:1018C000240B6D0D36E7954DAB4200D1D6E0821862
:1018D000210082428041594440420818C7075208FB
:1018E00017434408520700D485E10F221D003A40F7
:1018F000042A00D01AE6FF08640727430509DDE73C
:101900005B46D2085F071743DD087BE6002700240B
:1019100010E7002B00D0D6E0002900D02FE1802472
:1019200000267E4D240305E766465C46D00817E78F
:101930005B46171ABA4292411C1B0126634652426B
:10194000A41A1E40C4E58318834280415C4440428F
:1019500025182A0200D4DAE0724A5B081540EA072B
:101960001A4369085B0700D44AE10F231340042B94
:1019700000D1FCE0171D9742A4416442022564187F
:10198000ECE647461C001F4300D043E70026002535
:101990000024CFE6C00867070743E50832E6871A48
:1019A0005B46B8428041E41A4042241A230228D4FC
:1019B0006307FF081F43E50801237FE7002B00D1E1
:1019C00073E64B465F1B3B00002D00D142E7382FEA
:1019D00000DDECE080230E001B041C431F2F25DCE0
:1019E00020252300ED1B0100A840AB40F940451E17
:1019F000A8410B43FC4018435B461B1B9B4639E741
:101A00006646012562E51F005946203FF9408C4695
:101A1000202B05D040275946FB1A99400A4392468D
:101A200057467B1E9F4163461F43C1E53B0025008F
:101A3000203BDD40202F04D04023DB1B9C40204373
:101A400080464046431E9841284313E700299DD015
:101A5000012663465C4690461E40DBE6171A5B464D
:101A6000BA4292411C1B5242A41A2302C8D46307F3
:101A7000FF081F4366460123E5081FE71D000024F9
:101A8000002757E65C46D0086AE6002B00D137E70E
:101A90005346C00867070743E508002B00D1B1E5AE
:101AA00080231B031D4208D05946C808184204D1A0
:101AB000D20849070A43170005007B0FFF00FF0803
:101AC0005B071F439EE5C00863071843E50800292C
:101AD00053D080231B031D420AD05946CC081C4218
:101AE00006D1012663462500D008490708431E4059
:101AF000470FC000C0087F07074383E58318934260
:101B000092415C445242A5182A0200D524E76F078F
:101B1000DB081F43ED080123D0E6C046FF070000A5
:101B2000FE070000FFFF7FFF5B46D2085F076646A7
:101B30001743DD0866E52500203BDD406346202B8A
:101B400005D0402361465B1A9C40204380464746AF
:101B50007B1E9F412F43A0E520210027091AD2E4D4
:101B6000002F00D113E75C4617000025F6E5D708E3
:101B7000490702230F432D09A0E6070042E55B4613
:101B800001265F07DD086346D20817431E4039E58A
:101B90005B46D2085F071743DD0833E51E4ADB08C2
:101BA00022405707520201251F43140BC2E50E00C5
:101BB00001205FE6002B0DD04B465B1B9C46002DA1
:101BC00000D148E50127382B00DD66E580231B04A2
:101BD0001C4350E56B1C114D2B4200D073E6594657
:101BE000230011438A46034300E66707C008002329
:101BF0000743E50862E66407FF08274305095DE639
:101C0000D208490711430F0002232D0956E60700A9
:101C1000A4E538008FE4C046FFFF7FFFFE07000009
:101C200070B5002816D0C317C5185D40C40F280032
:101C300000F024F8104B1B1A5B055B0D0A2814DC1E
:101C400002002E00153296400B22121AD5402D03A9
:101C50002D0B03E000240023002500261B052B4349
:101C6000E40723433000190070BD0B3885402D0375
:101C700000262D0BF2E7C0461E0400001C210123A4
:101C80001B04984201D3000C10391B0A984201D35F
:101C9000000A08391B09984201D30009043902A23D
:101CA000105C40187047C0460403020201010101A4
:101CB000000000000000000010B588B014220021D0
:101CC00003A800F018FE134B5A698021C9020A4389
:101CD0005A615A690A400192019A5A69802189021F
:101CE0000A435A615B690B400293029B0A4C002233
:101CF0000321200000F07AFD03230393023B0493A9
:101D000000230593069303A9200000F0ABFC08B064
:101D100010BDC0460010024000040048F0B5DE4689
:101D200057464E464546E0B591B083460F919146E1
:101D300000230E93002300240A930B9482E02200D8
:101D40002B0002980399FFF761FB04000D0032009D
:101D50003B0030003900FEF78BFB009A019BFFF738
:101D60006FF8069A079BFEF783FB00900191220013
:101D70002B0004980599FEF77BFB06000F0001235A
:101D80009C46E044C8451DDA32003B003000390073
:101D9000FFF756F802900391009C019D22002B0052
:101DA00020002900FFF74CF804000D0002000B0092
:101DB00002980399FEF75CFB00222C4BFEF73AFBDE
:101DC0000028BCD10D9C554643460893DB17099368
:101DD0000A9A0B9B0898099912184B410A920B9387
:101DE0000134AC422ADA29002000FEF717FAFFF787
:101DF00017FF00221E4BFFF723F800221D4BFFF7B1
:101E000005FB0490059159460E98FEF707FAFFF777
:101E100007FF02000B00FEF72BFB0022164BFFF71B
:101E2000F5FA0690079100239846002200230092BD
:101E3000019316001F000D94AA46A3E7AB460E9B24
:101E400001330E930E9B0F9A934205DA00231C0078
:101E50005D460F9B9B46C4E70A980B9911B0F0BCF6
:101E6000BB46B246A946A046F0BDC04600001040A1
:101E700000000C40000004400000F03F72B6FEE796
:101E800000B591B03022002104A800F034FD1022EA
:101E90000021684600F02FFD02230493013B0793C5
:101EA0000F33089304A800F06FF800280DD1072322
:101EB000009300230193029303930021684600F0EE
:101EC000DBFA002803D111B000BDFFF7D7FFFFF701
:101ED000D5FF000070B500F091FBFFF7D1FFFFF7D1
:101EE000EBFE134C636901221343636100F0A2FB14
:101EF000104D2860104B186964220100FFF70EFF97
:101F00000E4B1860596000F095FB0D4B18602B6864
:101F1000C01A0C4B18606369022213436361FA20F4
:101F2000800000F08DFB6369FF2293436361FEE74D
:101F30000004004844000020000000204800002069
:101F4000400000203C000020FEE7FEE7704770479D
:101F500010B500F063FB10BD82B00A4B99690122F5
:101F60001143996199690A400092009ADA698021C7
:101F700049050A43DA61DB690B400193019B02B01A
:101F80007047C0460010024070B582B0041E00D1F8
:101F90002EE20368DB0726D5AE4B5A680C231340AC
:101FA000042B18D0AB4B5A680C231340082B0ED0CF
:101FB0006368012B3CD0002B51D1A64B1A68A6496F
:101FC0000A401A601A68A5490A401A6036E0A14B17
:101FD0005B68DB03ECD59F4B1B689B0303D56368F1
:101FE000002B00D107E223689B0772D5994B5B68F1
:101FF0000C221A425DD0974B5A680C231340082BD1
:1020000053D0E368002B00D185E0924A1368012188
:102010000B43136000F00EFB05008E4B1B689B0703
:1020200070D400F007FB401B0228F6D90320E0E142
:10203000884A116880235B020B4313606368002B9E
:1020400025D000F0F7FA0500824B1B689B03CAD429
:1020500000F0F0FA401B6428F6D90320C9E1052BF3
:1020600009D07C4B1A687C490A401A601A687B497F
:102070000A401A60E2E7774B19688022D2020A43CD
:102080001A601968802252020A431A60D6E700F0EB
:10209000D1FA05006F4B1B689B03A4D500F0CAFA68
:1020A000401B6428F6D90320A3E16A4B5B68DB037D
:1020B000A7D4684B1B689B0703D5E368012B00D0AE
:1020C0009BE164490B68F82293432269D2001343D1
:1020D0000B6023681B0744D5E369002B2ED05D4AB3
:1020E000536A01210B43536200F0A4FA0500594BD7
:1020F0005B6A9B0735D400F09DFA401B0228F6D995
:10210000032076E153490B68F82293432269D200F9
:1021100013430B60DDE74F4A136801218B431360C3
:1021200000F088FA05004B4B1B689B07D1D500F0E7
:1021300081FA401B0228F6D903205AE1454A536A26
:1021400001218B43536200F075FA0500414B5B6A35
:102150009B0706D500F06EFA401B0228F6D9032033
:1021600047E123685B0700D480E03A4BDB69DB0082
:102170001DD4384BDA69802149050A43DA61DB69ED
:102180000B400193019B0125354B1B68DB0510D5E6
:10219000A368012B21D0002B36D12E4B1A6A0121C6
:1021A0008A431A621A6A03318A431A621AE00025C6
:1021B000EAE72B4A116880235B000B43136000F0B1
:1021C00039FA0600264B1B68DB05E1D400F032FA31
:1021D000801B6428F6D903200BE11E4A136A0121F3
:1021E0000B431362A368002B24D000F023FA0600EF
:1021F000184B1B6A9B0737D400F01CFA801B194B45
:102200009842F5D90320F4E0052B09D0114B1A6A46
:1022100001218A431A621A6A03318A431A62E1E78A
:102220000C4B1A6A04210A431A621A6A03390A43D8
:102230001A62D7E700F0FEF90600064B1B6A9B07FF
:1022400012D500F0F7F9801B064B9842F5D9032010
:10225000CFE0C04600100240FFFFFEFFFFFFFBFF84
:102260000070004088130000012D33D02368DB0686
:1022700010D56369012B33D0053351D1654A536BB7
:1022800004218B435363536BF4318B43A169C90021
:102290000B435363236A002B00D1B0E05D4A5168C1
:1022A0000C220A40082A00D18AE0022B4FD0594A5A
:1022B000136859490B40136000F0BCF90400554BFA
:1022C0001B689B017AD500F0B5F9001B0228F6D9EE
:1022D00003208EE04F4AD36950490B40D361C5E7D4
:1022E0004C4B5A6B04210A435A635A6B03390A4315
:1022F0005A6300F09FF90500464B5B6B9B0706D4C1
:1023000000F098F9401B0228F6D9032071E04149FA
:102310004B6BF8229343A269D20013434B63B9E796
:102320003C4B5A6B04210A435A635A6B03398A4364
:102330005A6300F07FF90500364B5B6B9B07A9D50C
:1023400000F078F9401B0228F6D9032051E0314A09
:10235000136831490B40136000F06CF905002D4BF8
:102360001B689B0106D500F065F9401B0228F6D9D1
:1023700003203EE0274BDA6A0F218A43E16A0A43D1
:10238000DA625A6826490A40A16A606A01430A4330
:102390005A601968802252040A431A6000F04AF910
:1023A00004001C4B1B689B0106D400F043F9001B82
:1023B0000228F6D903201CE000201AE0002018E0D3
:1023C000012B1ED0134B5A68D86A80235B0213403E
:1023D000616A8B4217D10F230340E16A8B4214D10B
:1023E000F0239B031A40A36A9A4210D1002000E018
:1023F000012002B070BD0120FBE70120F9E70020B9
:10240000F7E70120F5E70120F3E70120F1E70120DC
:10241000EFE7C04600100240FFFFFFFEFFFFFFEFA7
:10242000FFFFC2FF10B5104B5A680C231340082B56
:1024300001D00E4810BD910C073319400C48445C84
:102440000949C96A0B400B49C95CD20304D5074846
:10245000FDF75AFE6043EDE76201121B93019B1AE0
:10246000DB001B191802E5E70010024000127A0099
:10247000782900086829000870B504000D000028BC
:1024800000D17EE0434B1A68012313408B420AD2ED
:1024900040490B68012293432B430B600B681A40A1
:1024A000AA4200D06FE023689A070ED55B0705D5D6
:1024B000394A5168E023DB000B435360364A5368C6
:1024C000F0218B43A1680B4353602368DB072DD5B4
:1024D0006368012B1ED0022B22D02F4A126892076C
:1024E00053D52D494A680320824313434B6000F0C3
:1024F000A1F80600284B5B680C221A4063689B0019
:102500009A4213D000F096F8801B244B9842F1D9E0
:10251000032035E0204A12689203E2D401202FE024
:102520001D4A12689201DCD4012029E0194B1A6877
:1025300001231340AB4209D916490B68012293438A
:102540002B430B600B681A40AA4220D123685B071B
:1025500006D5114A536812490B40E1680B4353609A
:10256000FFF760FF0C4B5A6812090F2313400D4A06
:10257000D35CD8400C4B1860032000F017F8002003
:1025800070BD0120FCE70120FAE70120F8E70120F7
:10259000F6E7C04600200240001002408813000009
:1025A000FFF8FFFF882900081C00002010B5040078
:1025B0000F4B1978FA208000FDF7A6FD01000D4BA6
:1025C0001868FDF7A1FD00F067F900280DD1032C74
:1025D00001D901200AE0013000222100404200F030
:1025E00057F9054B1C60002000E0012010BDC046DB
:1025F000140000201C0000201800002010B5064A1E
:10260000136810210B4313600320FFF7CFFFFFF780
:10261000A3FC002010BDC04600200240034A116800
:10262000034B1B785B1813607047C04650000020B6
:1026300014000020014B18687047C046500000206D
:1026400070B50400FFF7F6FF0500631C02D0044BD1
:102650001B78E418FFF7EEFF401BA042FAD370BDD1
:1026600014000020F0B583B0002356E086685F00B8
:102670000324BC40A643CC68BC4034438460446817
:1026800094434E683609012232409A402243426008
:1026900053E0DE080836B600375805321A4092007B
:1026A0000F249440A7430C69944022003A433250CF
:1026B00056E0032600E00026A64034003C430232E8
:1026C0009200444E9451444A9768EA433E00AE4318
:1026D0004C68E40201D53E002E433F4CA660E768FB
:1026E0003E0016404C68A40201D53E002E433A4CF1
:1026F000E66067683E0016404C68A40301D53E00C2
:102700002E43354C6660266832404C68E40301D5A0
:102710002A003243304C226001330C682200DA4038
:1027200056D001229A40250015401442F4D04E683C
:1027300003243440013C012C98D94C6803222240E8
:10274000032A08D0C4685E000322B24094438A681A
:10275000B2402243C2604C6803222240022A98D031
:1027600004685E0003221700B740BC434F683A403C
:10277000B240224302604C68C02292021442CBD085
:10278000164CA66901221643A661A4692240019253
:10279000019A9A08941CA4000E4EA75903241C40C9
:1027A000A4000F26A640B7439026F605B04282D07B
:1027B0000B4EB04208D00B4EB04207D00A4EB0428A
:1027C00000D176E7052677E7012675E7022673E74D
:1027D00003B0F0BD000001400004014000100240C1
:1027E0000004004800080048000C0048002A01D0FE
:1027F000816170478162FCE770B5002811DB8308B6
:10280000134DC0339B005C5903221040C000FC32C2
:1028100016008640B44389010A40824022435A513F
:1028200070BD0F230340083B9B0806339B00094AF9
:10283000944663445C6803221040C000FC321500DB
:102840008540AC4389010A40824022435A60E7E751
:1028500000E100E000ED00E0013880235B049842D5
:102860000FD2094A50600948036A1B021B0AC021A3
:1028700009060B43036200239360073313600020B3
:1028800070470120FCE7C04610E000E000ED00E0EA
:1028900010B5FFF7B1FF10BD10B5FFF7DDFF10BD9C
:1028A000704700000D488546FFF7FAFF0C480D49B8
:1028B0000D4A002302E0D458C4500433C4188C429B
:1028C000F9D30A4A0A4C002301E013600432A24201
:1028D000FBD300F019F8FFF7FDFAFEE70020002017
:1028E0000000002020000020A02900082000002077
:1028F00054000020FEE703008218934200D1704785
:1029000019700133F9E7000070B500260C4C0D4D2D
:10291000641BA410A64209D1002600F019F80A4C45
:102920000A4D641BA410A64205D170BDB300EB583C
:1029300098470136EEE7B300EB5898470136F2E7C7
:1029400098290008982900089C290008982900085F
:10295000F8B5C046F8BC08BC9E467047F8B5C046FE
:08296000F8BC08BC9E4670475C
:102968000102030405060708090A0B0C0D0E0F10D7
:1029780002030405060708090A0B0C0D0E0F1010B8
:102988000000000000000000010203040607080917
:04299800E90000084A
:04299C00C10000086E
:1029A00080000000A0000000C0000000E000000067
:1029B00000010000010000000400000000127A0085
:04000005080028A522
:00000001FF
