:020000040800F2
:1000000000200020590700082105000823050008EA
:1000100000000000000000000000000000000000E0
:10002000000000000000000000000000250500089E
:100030000000000000000000270500082905000856
:10004000A9070008A9070008A9070008A9070008D0
:10005000A9070008A9070008A9070008A9070008C0
:10006000A9070008A9070008A9070008A9070008B0
:10007000A9070008A9070008A9070008A9070008A0
:10008000A9070008A907000800000000A907000848
:10009000A9070008A9030008A9070008A907000884
:1000A000A9070008A9070008A9070008A907000870
:1000B000A907000800000000A907000800000000D0
:1000C00010B5064C2378002B07D1054B002B02D02E
:1000D000044800E000BF0123237010BD1000002081
:1000E0000000000004080008044B10B5002B03D0EA
:1000F0000349044800E000BF10BDC04600000000F6
:100100001400002004080008002243088B4274D326
:1001100003098B425FD3030A8B4244D3030B8B4208
:1001200028D3030C8B420DD3FF22090212BA030C11
:100130008B4202D31212090265D0030B8B4219D3F2
:1001400000E0090AC30B8B4201D3CB03C01A524112
:10015000830B8B4201D38B03C01A5241430B8B425A
:1001600001D34B03C01A5241030B8B4201D30B0343
:10017000C01A5241C30A8B4201D3CB02C01A52416A
:10018000830A8B4201D38B02C01A5241430A8B422D
:1001900001D34B02C01A5241030A8B4201D30B0216
:1001A000C01A5241CDD2C3098B4201D3CB01C01A30
:1001B000524183098B4201D38B01C01A524143093A
:1001C0008B4201D34B01C01A524103098B4201D328
:1001D0000B01C01A5241C3088B4201D3CB00C01A95
:1001E000524183088B4201D38B00C01A524143080D
:1001F0008B4201D34B00C01A5241411A00D2014632
:10020000524110467047FFE701B5002000F006F8A4
:1002100002BDC0460029F7D076E770477047C04658
:10022000F0B5DE4657464E464546E0B58BB018223F
:10023000002104A800F0B9FA594B5A698021C9037A
:100240000A435A615A690A400392039A5A69802103
:1002500089020A435A615A690A400292029A5A690B
:100260008021C9020A435A615B690B400193019BDB
:100270004C4D0126AE6202239A46AB620233994688
:10028000AB6204339846AB6208339B46AB621033D3
:10029000AB624022AA628021A96204960896902748
:1002A000FF0504A80100380000F043F9504604900F
:1002B00000240594089604A80100380000F039F9DC
:1002C000484604900594089604A80100380000F000
:1002D00030F9404604900594089604A801003800BF
:1002E00000F027F90496059606940794089404A84C
:1002F0000100280000F01DF9504604900596069470
:100300000794089404A80100280000F012F9484658
:100310000490059606940794089404A80100280008
:1003200000F007F940460490059606940794089457
:1003300004A80100280000F0FCF858460490059637
:1003400006940794089404A80100280000F0F1F82E
:1003500020230493059606940794089404AB19008F
:10036000280000F0E6F840220492059606940794CF
:10037000089404AB1900280000F0DBF880210491F8
:10038000059606940794089404A9280000F0D1F873
:100390000BB0F0BCBB46B246A946A046F0BDC04675
:1003A0000010024000040048244A136901218B43D5
:1003B0001361234B1B78032B1BD0022B1AD021492E
:1003C0004A69FF2082434A611F4A1278002A1ED0E0
:1003D0001E4A1278072A13D01C4901320A70022BD8
:1003E00023D018494B69194A1078012282401343DF
:1003F0004B61704713494A69FF2002434A61E3E7B2
:10040000114A00211170114A06311170E7E70F4AB5
:100410001278002A05D10C4A012111700B4A117083
:10042000DDE70A49013A0A70D9E706494B69074AEC
:1004300010780122824093434B61DAE70044014087
:1004400000000020000400482D0000202C000020A7
:1004500072B6FEE710B51A4A136801218B43136088
:10046000174B1B68DB07FBD4164A136801210B43AB
:100470001360144B1B689B07FBD5124B1A68F821BD
:100480008A4378390A431A605A6870318A435A603D
:100490005A680D490A405A605A6803218A435A60D3
:1004A000084B5B680C221A42FAD1084800F04EF95A
:1004B000032000F09BF8002800D110BDFFF7C8FF13
:1004C0000020024000100240FFF8FFFF00127A00F7
:1004D00010B500F0B3F8FFF7BDFFFFF7A1FE0B4A20
:1004E000916980239B020B439361094B094A9A62ED
:1004F000094ADA62DA6801210A43DA60074A802091
:10050000800310601A680A431A60FEE70010024078
:10051000004401403F1F0000E703000000E100E04D
:10052000FEE7FEE77047704710B500F097F810BD82
:100530007047F0B5002216E00B699C46C4682B009A
:100540006B435E00F618F743B44366465E4334439C
:10055000C4604C68022C26D04D6804683C406B4354
:100560002343036001320C682300D3403BD00123B6
:10057000934025001D401C42F4D04B68013B012BE9
:10058000DAD88F6883682C006C4366003619B34351
:100590007C43234383600E68CC684368B343744351
:1005A00023434360C8E7FF2D0DD84C69A446066A73
:1005B0001C006C436C4325012D1BAE4365466C4308
:1005C00034430462C8E74C69A446466A2D0A2C00ED
:1005D0006C436C436C4325012D1BAE4365466C4355
:1005E00034434462B8E70020F0BD000010B50400B9
:1005F0000F4B1978FA208000FFF786FD01000D4BA4
:100600001868FFF781FD00F085F800280DD1032C54
:1006100001D901200AE0013000222100404200F00F
:1006200075F8054B1C60002000E0012010BDC0469D
:1006300008000020040000200C00002010B5064A2D
:10064000136810210B4313600320FFF7CFFF00F066
:1006500065F8002010BDC04600200240034A116822
:10066000034B1B785B1813607047C04630000020B6
:100670000800002070B5002811DB8308134DC0333B
:100680009B005C5903221040C000FC3216008640DB
:10069000B44389010A40824022435A5170BD0F235E
:1006A0000340083B9B0806339B00094A9446634479
:1006B0005C6803221040C000FC3215008540AC434A
:1006C00089010A40824022435A60E7E700E100E0E6
:1006D00000ED00E0013880235B0498420FD2094A04
:1006E00050600948036A1B021B0AC02109060B431C
:1006F00003620023936007331360002070470120DA
:10070000FCE7C04610E000E000ED00E010B5FFF7A8
:10071000B1FF10BD10B5FFF7DDFF10BD82B00A4B71
:10072000996901221143996199690A400092009ADE
:10073000DA69802149050A43DA61DB690B400193DC
:10074000019B02B07047C04600100240014B186088
:100750007047C046040000200D488546FFF7E8FEBC
:100760000C480D490D4A002302E0D458C45004330C
:10077000C4188C42F9D30A4A0A4C002301E01360E2
:100780000432A242FBD300F019F8FFF7A1FEFEE706
:100790000020002000000020100000202408000895
:1007A0001000002034000020FEE70300821893426E
:1007B00000D1704719700133F9E7000070B50026C9
:1007C0000C4C0D4D641BA410A64209D1002600F06C
:1007D00019F80A4C0A4D641BA410A64205D170BD3D
:1007E000B300EB5898470136EEE7B300EB58984753
:1007F0000136F2E71C0800081C0800082008000861
:100800001C080008F8B5C046F8BC08BC9E467047F6
:0C081000F8B5C046F8BC08BC9E46704716
:04081C00E9000008E7
:04082000C10000080B
:100824000200000000127A00010000000400000031
:04000005080007598F
:00000001FF
