:020000040800F2
:10000000002000200D1200085D08000861080008AB
:1000100000000000000000000000000000000000E0
:10002000000000000000000000000000650800085B
:100030000000000000000000690800086D080008CA
:100040005D1200085D1200085D1200085D120008D4
:100050005D1200085D1200085D1200085D120008C4
:100060005D1200085D1200085D1200085D120008B4
:100070005D1200085D1200085D1200085D120008A4
:100080005D1200085D120008000000005D1200080B
:100090005D1200085D1200085D1200085D12000884
:1000A0005D1200085D1200085D1200085D12000874
:1000B0005D120008000000005D1200080000000052
:1000C00010B5064C2378002B07D1054B002B02D02E
:1000D000044800E000BF0123237010BD2000002071
:1000E00000000000B8120008044B10B5002B03D02C
:1000F0000349044800E000BF10BDC04600000000F6
:1001000024000020B8120008002243088B4274D358
:1001100003098B425FD3030A8B4244D3030B8B4208
:1001200028D3030C8B420DD3FF22090212BA030C11
:100130008B4202D31212090265D0030B8B4219D3F2
:1001400000E0090AC30B8B4201D3CB03C01A524112
:10015000830B8B4201D38B03C01A5241430B8B425A
:1001600001D34B03C01A5241030B8B4201D30B0343
:10017000C01A5241C30A8B4201D3CB02C01A52416A
:10018000830A8B4201D38B02C01A5241430A8B422D
:1001900001D34B02C01A5241030A8B4201D30B0216
:1001A000C01A5241CDD2C3098B4201D3CB01C01A30
:1001B000524183098B4201D38B01C01A524143093A
:1001C0008B4201D34B01C01A524103098B4201D328
:1001D0000B01C01A5241C3088B4201D3CB00C01A95
:1001E000524183088B4201D38B00C01A524143080D
:1001F0008B4201D34B00C01A5241411A00D2014632
:10020000524110467047FFE701B5002000F006F8A4
:1002100002BDC0460029F7D076E770477047C04658
:10022000002B15D1002A13D1002906DB01DC0028A0
:1002300006D00020C043410802E0802109060020CA
:1002400007B4024801A14018029003BDD1FFFFFF8F
:1002500003B4684601B5029800F034F8019B9E464D
:1002600002B00CBC7047C046F0B5CE469946030CB0
:100270009C46130447461B0C1D000E0061460404F7
:10028000240C80B50700100C4B4365434143604389
:100290002C0CC01824188C46A34203D980235B027F
:1002A0009846C444494679435643230C2D042D0CEB
:1002B0008919634424046019C918C0BCB946B04602
:1002C000F0BDC046F8B5CE46474680B59146984643
:1002D00004000D0000F03EF807000E0002000B00C5
:1002E00048464146FFF7C0FF241A8D41089B38005D
:1002F00031001C605D60C0BCB946B046F8BDC04668
:100300001C2101231B04984201D3000C10391B0A45
:10031000984201D3000A08391B09984201D3000909
:10032000043902A2105C40187047C0460403020260
:1003300001010101000000000000000010B50029CB
:1003400003D1FFF7DDFF203002E00800FFF7D8FF00
:1003500010BDC046F0B54F464646D646C0B506006D
:100360000F001000190082B0002F5DDB34003D004B
:10037000002B0BDB16001F00AB4217D90020002119
:1003800002B0E0BCBA46B146A846F0BD00274642DE
:100390008F41AF42F2D800D1A0E001235B429946E1
:1003A00009E0002746428F41AF42E7D8AF4200D173
:1003B00090E00023994639003000FFF7BFFF8046E8
:1003C00029002000FFF7BAFF43461B1A9846203B3E
:1003D00075D4310099409A460B0031004046814067
:1003E0000A00AB422ED82BD05146A41A9D410029B9
:1003F00000DA90E000210020012600900191514692
:100400008E400196414601268E40414600960029C5
:100410001FD1009801994B46002BB1D003000C006E
:1004200000215842A141ABE700257442BD41002B99
:10043000B7DB16001F00AB42A0D8AF42ADD14DE0F4
:10044000A142D1D90021002000900191414600290C
:10045000DFD0D90756085F080E4343460EE0AF428F
:1004600001D1A6420CD8A41BBD41012124196D4124
:100470000022013B64185541002B06D0AF42EED953
:10048000013B24196D41002BF8D1009A019B514684
:1004900012196B41002925DB2E002C00CE4041466D
:1004A000CC40514600292DDB34008C4021004446CD
:1004B000A6403000121A8B4100920193A9E74246F0
:1004C00038009A462023310090409B1AD9400300FF
:1004D0000B4382E7A64200D950E76AE7A64200D85C
:1004E0005BE74BE740462021091A28008840260098
:1004F00001004046C6402C000E434146CC405146C8
:100500000029D1DA4046202135008440091ACD4027
:1005100021002943CBE7414620260127761A0020F7
:100520000021F7400090019101976BE700B591B071
:100530002C22002105A800F092FE1022002168461E
:1005400000F08DFE0223012204930C93A023079256
:100550009B030F3204A808920E9300F0A3F9002821
:1005600001D072B6FEE70722022300920193002217
:100570000023012168460292039300F015FC002835
:1005800001D072B6FEE711B000BDC046F0B5DE4640
:1005900057464E464546E0B5A7B000F0B7FCFFF71A
:1005A000C5FF1422002120A800F059FE8021A04B95
:1005B000C9035A699F4C0A435A615A6920000A408C
:1005C00080211D921D9A5A69C9020A435A615A69CB
:1005D00020AD0A4080211E921E9A5A6989020A4360
:1005E0005A615B6900220B401F93FF211F9B00F0A3
:1005F000C1FDFF220123209221930022002320002D
:1006000020A92292239300F0B5FC012263691343D1
:10061000636100F097FC8023DB0007009B46864E59
:1006200033689A46002B00DCFDE0DB1700241593AD
:100630000023169317941293139400241997189477
:100640001A951B96159B5246169817990124FFF789
:10065000E7FD7A4B64421B184C410C930D94002328
:10066000002499460E930F940E980F995246159BAD
:100670000124FFF7D5FD724B64421B184C410A93CD
:100680000B94002300229846002300260027002414
:10069000002504920593029203931AE022002B0096
:1006A00020002900FFF7E0FD32003B00029003919B
:1006B00030003900FFF7D8FD029A039B04900591A2
:1006C0000498059912184B415B4500DDA6E000D166
:1006D0009FE032003B0020002900FFF7C5FD02002B
:1006E0000B0092185B4100251C00D9171300090369
:1006F000090B07950691069807991B184C411A0D8E
:10070000210311430E000498059927150C9B0D9C9D
:10071000F6186741029A039B121A8B41D9170903F5
:10072000090B099508910898099912184B4119036A
:10073000100D1B150843019300900A9A0B9B009C17
:10074000019DA4185D4101239C46E0444346642B6F
:10075000A4D164230024109311941099119A129B30
:10076000139C5B185441E02112931394012300223F
:100770009C460E9B0F9C89035B185441E1440E93E9
:100780000F94CA4500D06FE7169B179C802100226A
:1007900089035B18544118981693179401301890E8
:1007A000824500D04EE7199F1A9D1B9E129B04366E
:1007B00008C525ABAB4200D032E7224A209B1D4C36
:1007C0001360DB175360204A219B1360DB175360D3
:1007D0001E4A229B1360DB1753601D4A239B136044
:1007E000DB1753601B4A249B1360DB17536000F038
:1007F000A9FB194B0222C01B1860FA206369C000D4
:100800001343636100F0A4FBFF22636993436361B8
:10081000FEE7802149038A4200D25AE743461093FB
:10082000DB17119399E70023002412931394BDE77B
:100830000010024000040048000000200000F0FF0B
:100840000000D8FF60000020580000205000002069
:1008500048000020400000203C000020FEE7C04689
:10086000FEE7C0467047C0467047C04610B500F06E
:100870005DFB10BD01220A4B82B099691143996159
:1008800099690A4080210092009ADA6949050A4371
:10089000DA61DB690B400193019B02B07047C046EF
:1008A00000100240F0B5CE46474680B5040083B044
:1008B000002800D1F2E00368DA0735D50C21C348DF
:1008C00042680A40042A00D101E142681140082927
:1008D00000D1F8E06368012B0FD0002B00D11EE19E
:1008E000052B00D1A7E1B94BB9491A680A401A6033
:1008F0001A68B8490A401A6005E08023B34A5B02CF
:1009000011680B43136000F01DFB80260500AF4FFC
:10091000B60205E000F016FB401B642800D9FCE09D
:100920003B683342F6D023689A0729D50C22A749A1
:100930004868024200D1AAE048680240082A00D173
:10094000A1E0E368A14D002B00D11FE101222B683B
:10095000022713432B6000F0F5FA060005E000F0D3
:10096000F1FA801B022800D9D7E02B681F42F6D08D
:10097000F8212A6823698A43DB0013432B6023682C
:100980001A072DD45A0744D5802200208F4B5205D8
:10099000D9698146114208D1D9691143D961DB690E
:1009A00013400193019B0123994680278A4E7F00C3
:1009B00033683B4200D194E0A368012B00D1F8E0FA
:1009C000002B00D1C4E0052B00D140E101217F4B79
:1009D0001A6A8A431A621A6A03318A431A62ECE07D
:1009E000E3697A4D002B5BD001226B6A0227134327
:1009F0006B6200F0A7FA060005E000F0A3FA801B86
:100A0000022800D989E06B6A1F42F6D023685A0792
:100A1000BAD4DB0612D56369012B00D13CE1053362
:100A200000D0E9E00421F820684A536B8B435363FC
:100A3000516BA3698143DB000B435363236A002B93
:100A40001BD00C22614D69680A40082A00D108E1D8
:100A5000022B00D13EE12B68604A802613402B60B8
:100A600000F070FAB604040004E000F06BFA001B1A
:100A7000022852D82B683342F7D1002003B0C0BC03
:100A8000B946B046F0BD4A68D20300D559E74F4A8F
:100A90001268920735D5E268012A32D00120EDE7CD
:100AA00001226B6A022793436B6200F04BFA060047
:100AB00004E000F047FA801B02282ED86B6A1F4220
:100AC000F7D12368A3E74268D20300D402E73F4A84
:100AD0001268920300D427E76268002A00D023E757
:100AE000DCE733683B43336000F02CFA050004E098
:100AF00000F028FA401B64280FD833683B42F7D037
:100B00005AE7F825314822690168D200A9430A430F
:100B100002601A0700D435E762E70320AEE72B4DE9
:100B20002B4A2B68802713402B602B68294ABF0271
:100B300013402B6000F006FA060004E000F002FA11
:100B4000801B6428E9D82B683B42F7D12368EBE689
:100B500001221E4E224D336A93433362336A0332BD
:100B60009343336200F0EEF902230700984604E055
:100B700000F0E8F9C01BA842CFD84246336A1A42B7
:100B8000F6D14B46012B4FD0236842E701222B6858
:100B9000022793432B6000F0D5F9060004E000F033
:100BA000D1F9801B0228B8D82B681F42F7D12368DF
:100BB000E6E606490A6A13430B6200F0C3F9034BE9
:100BC000060098460227064D11E0C046001002407C
:100BD000FFFFFEFFFFFFFBFF00700040FFFFFFFE77
:100BE0008813000000F0AEF9801BA84295D8434658
:100BF0001B6A1F42F6D0C4E70422524D02276B6BDA
:100C000013436B636B6B033A93436B6300F09AF986
:100C1000060005E000F096F9801B022800D97CE769
:100C20006B6B1F42F6D109E7464A4749D3690B402F
:100C3000D3612368EDE68022424BD20219680A4351
:100C40001A608022196852020A431A605BE6042186
:100C50003C4B1A6A0A431A621A6A03390A431A6237
:100C6000ABE7012B00D119E780226B68616A520261
:100C7000E86A1A408A4200D010E70F22E16A024077
:100C80008A4200D00AE7F022A06A92031340181AA1
:100C9000431E9841C0B2F1E604212A4D02276A6B37
:100CA0000A436A636A6B13436B6300F04BF90600F7
:100CB00005E000F047F9801B022800D92DE76B6B97
:100CC0001F42F6D0F8216A6BA3698A43DB00134305
:100CD0006B63B3E62B681D4A802713402B6000F03E
:100CE00031F9BF04060005E000F02CF9801B022852
:100CF00000D912E72B683B42F6D10F22EB6A114E66
:100D00009343E26A1343EB62616AA36A6A680B4326
:100D10000F490A4013436B6080232A685B04134326
:100D20002B6000F00FF980250400AD0405E000F011
:100D300009F9001B022800D9EFE633682B42F6D0F0
:100D40009BE6C04600100240FFFFFFEFFFFFFFFEE3
:100D5000FFFFC2FF0C23104970B54A681340082BEF
:100D600001D00E4870BD0F250D48930C2B40C45C7C
:100D7000C96AD20307D50B4B0D40595D0748FFF7F1
:100D8000C3F96043EEE76201121B93019B1ADB007B
:100D90001B191802E6E7C0460010024000127A0054
:100DA000E0120008D0120008F8B5CE46474604000D
:100DB0000D0080B500280DD001233B490A681A4078
:100DC000AA420CD20A689A432A430A600A6813406E
:100DD000AB4204D00120C0BCB946B046F8BD236880
:100DE0009A070ED55A0705D5E0223049D200486847
:100DF00002434A60F0202D494A688243A0680243BA
:100E00004A60DB0722D5294B62681B68012A46D05D
:100E1000022A41D09B07DDD50321244E73688B4302
:100E20001343736000F08EF80C239846204B0700A4
:100E3000994604E000F086F8C01B484532D8434686
:100E400072681A4063689B009A42F3D10121164AE6
:100E500013680B40AB4205D913688B4313601368CA
:100E60001942B7D123685B0706D5104A1149536868
:100E70000B40E1680B435360FFF76CFF0B4B0E4ACE
:100E80005B680E491B061B0FD35CD840086003202B
:100E900000F016F800209EE79B01BDD49AE79B0363
:100EA000BAD497E7032096E70020024000100240E2
:100EB00088130000FFF8FFFFF01200081C0000205C
:100EC00070B50400FA200E4B80001978FFF71CF96A
:100ED0000C4D01002868FFF717F900F07BF9002896
:100EE0000CD10130032C00D970BD02380022210042
:100EF00000F046F9044B00201C60F5E70120F3E701
:100F0000140000201C000020180000201021064AB8
:100F100010B5136803200B431360FFF7D1FFFFF7F1
:100F2000A9FC002010BDC04600200240034A044B2B
:100F300011681B785B1813607047C046680000207A
:100F400014000020014B18687047C046680000205C
:100F500070B50400FFF7F6FF0500631C02D0044BD8
:100F60001B78E418FFF7EEFF401BA042FAD370BDD8
:100F700014000020F0B5DE4657464E464546E0B523
:100F80008C460968002387B0002973D0734A744FD8
:100F900093466246029201229A4094460A40009289
:100FA0006246114262D0029C5D0062689246032252
:100FB000544622400324AC40E443561E0194012EC3
:100FC0005FD9032A00D0BCE0AA400668019C3440E7
:100FD0002243C02402605246A402224246D05A460E
:100FE00001245D4692690F262243AA61AA6903255E
:100FF00022405C4C1D40A446AD00AE400592059ACF
:101000009A08920062449468B4439026F605B04270
:101010000ED0554EB04200D18BE0544EB04200D1BC
:101020008BE0534EB04200D17FE00526AE40344302
:10103000802655469460009C7603E443BA683542A6
:1010400000D06FE022405546BA60FA68AD0266D41F
:1010500022405546FA607A68AD035DD42240554679
:101060007A603A68ED0352D422403A600A000133B4
:10107000DA4090D107B0F0BCBB46B246A946A046C4
:10108000F0BD86682640B146029EF668AE40B04686
:101090004E46444626438660446826006446A6437E
:1010A00054462409B0462600012426409E40B446FA
:1010B0004646644626434660C4682600019C264096
:1010C000029CB046A4682600AE40B446464664463C
:1010D0002643C660022A00D076E7DC08A400A446B6
:1010E00084446446266A07241C40A400A046039654
:1010F0000F244646B440039EA64303964646029CF0
:101100002469B440039E2643644626625CE7009C43
:10111000144322003A60A9E7009D2A439FE7009DFF
:101120002A4396E7009D2A438DE70326AE403443C9
:101130007EE70126AE4034437AE70226AE403443D0
:1011400076E7C468019E3440A046029CA468AC4087
:10115000A446444666463443C46035E70010024066
:10116000000401400000014000040048000800485D
:10117000000C0048002A01D0816170478162FCE7C1
:10118000FF22032310B514000340DB009C408901BB
:101190000A40E4439A4000280BDB0C4BC0219C46DC
:1011A0008008800060448900435823401343435023
:1011B00010BD0F23064903408C46083B9B089B004B
:1011C0006344D9690C401443DC61F1E700E100E0BD
:1011D00000ED00E08022431E5204012093420ED213
:1011E000C021074A07485360036A09061B021B0A0D
:1011F0000B430362002300209360073313607047A2
:1012000010E000E000ED00E07047C0460D48854664
:10121000FFF7FAFF0C480D490D4A002302E0D458AD
:10122000C4500433C4188C42F9D30A4A0A4C002330
:1012300001E013600432A242FBD300F019F8FFF77B
:10124000A5F9FEE70020002000000020200000207B
:1012500010130008200000206C000020FEE70300AF
:101260008218934200D1704719700133F9E70000EA
:1012700070B500260C4C0D4D641BA410A64209D17C
:10128000002600F019F80A4C0A4D641BA410A6426F
:1012900005D170BDB300EB5898470136EEE7B300B7
:1012A000EB5898470136F2E70813000808130008C6
:1012B0000C13000808130008F8B5C046F8BC08BCB9
:1012C0009E467047F8B5C046F8BC08BC9E467047BD
:1012D0000102030405060708090A0B0C0D0E0F1086
:1012E00002030405060708090A0B0C0D0E0F101067
:1012F00000000000000000000102030406070809C6
:0813000054F0FF7F0100000022
:04130800E9000008F0
:04130C00C100000814
:1013100080000000A0000000C0000000E00000000D
:1013200000010000010000000400000000127A002B
:040000050800120DD0
:00000001FF
